{
  "address": "0x6D03001B3450b8cC29369df2F29e5379f0Ea3d29",
  "abi": [
    {
      "inputs": [
        {
          "internalType": "address",
          "name": "_vrfCoordinator",
          "type": "address"
        },
        {
          "internalType": "bytes32",
          "name": "_gasLane",
          "type": "bytes32"
        },
        {
          "internalType": "uint64",
          "name": "_subscriptionID",
          "type": "uint64"
        },
        {
          "internalType": "uint32",
          "name": "_gasLimits",
          "type": "uint32"
        },
        {
          "internalType": "uint256",
          "name": "_mintFee",
          "type": "uint256"
        },
        {
          "internalType": "uint256",
          "name": "_nftAmount",
          "type": "uint256"
        },
        {
          "internalType": "string[]",
          "name": "_nftURIArr",
          "type": "string[]"
        }
      ],
      "stateMutability": "nonpayable",
      "type": "constructor"
    },
    {
      "inputs": [],
      "name": "IpfsNFT__TransferFailed",
      "type": "error"
    },
    {
      "inputs": [
        {
          "internalType": "address",
          "name": "have",
          "type": "address"
        },
        {
          "internalType": "address",
          "name": "want",
          "type": "address"
        }
      ],
      "name": "OnlyCoordinatorCanFulfill",
      "type": "error"
    },
    {
      "anonymous": false,
      "inputs": [
        {
          "indexed": true,
          "internalType": "address",
          "name": "owner",
          "type": "address"
        },
        {
          "indexed": true,
          "internalType": "address",
          "name": "approved",
          "type": "address"
        },
        {
          "indexed": true,
          "internalType": "uint256",
          "name": "tokenId",
          "type": "uint256"
        }
      ],
      "name": "Approval",
      "type": "event"
    },
    {
      "anonymous": false,
      "inputs": [
        {
          "indexed": true,
          "internalType": "address",
          "name": "owner",
          "type": "address"
        },
        {
          "indexed": true,
          "internalType": "address",
          "name": "operator",
          "type": "address"
        },
        {
          "indexed": false,
          "internalType": "bool",
          "name": "approved",
          "type": "bool"
        }
      ],
      "name": "ApprovalForAll",
      "type": "event"
    },
    {
      "anonymous": false,
      "inputs": [
        {
          "indexed": true,
          "internalType": "uint256",
          "name": "requestID",
          "type": "uint256"
        }
      ],
      "name": "MintRequested",
      "type": "event"
    },
    {
      "anonymous": false,
      "inputs": [
        {
          "indexed": true,
          "internalType": "uint256",
          "name": "tokenID",
          "type": "uint256"
        }
      ],
      "name": "NFTSend",
      "type": "event"
    },
    {
      "anonymous": false,
      "inputs": [
        {
          "indexed": true,
          "internalType": "address",
          "name": "previousOwner",
          "type": "address"
        },
        {
          "indexed": true,
          "internalType": "address",
          "name": "newOwner",
          "type": "address"
        }
      ],
      "name": "OwnershipTransferred",
      "type": "event"
    },
    {
      "anonymous": false,
      "inputs": [
        {
          "indexed": true,
          "internalType": "address",
          "name": "from",
          "type": "address"
        },
        {
          "indexed": true,
          "internalType": "address",
          "name": "to",
          "type": "address"
        },
        {
          "indexed": true,
          "internalType": "uint256",
          "name": "tokenId",
          "type": "uint256"
        }
      ],
      "name": "Transfer",
      "type": "event"
    },
    {
      "inputs": [
        {
          "internalType": "address",
          "name": "to",
          "type": "address"
        },
        {
          "internalType": "uint256",
          "name": "tokenId",
          "type": "uint256"
        }
      ],
      "name": "approve",
      "outputs": [],
      "stateMutability": "nonpayable",
      "type": "function"
    },
    {
      "inputs": [
        {
          "internalType": "address",
          "name": "owner",
          "type": "address"
        }
      ],
      "name": "balanceOf",
      "outputs": [
        {
          "internalType": "uint256",
          "name": "",
          "type": "uint256"
        }
      ],
      "stateMutability": "view",
      "type": "function"
    },
    {
      "inputs": [
        {
          "internalType": "uint256",
          "name": "tokenId",
          "type": "uint256"
        }
      ],
      "name": "getApproved",
      "outputs": [
        {
          "internalType": "address",
          "name": "",
          "type": "address"
        }
      ],
      "stateMutability": "view",
      "type": "function"
    },
    {
      "inputs": [
        {
          "internalType": "address",
          "name": "owner",
          "type": "address"
        },
        {
          "internalType": "address",
          "name": "operator",
          "type": "address"
        }
      ],
      "name": "isApprovedForAll",
      "outputs": [
        {
          "internalType": "bool",
          "name": "",
          "type": "bool"
        }
      ],
      "stateMutability": "view",
      "type": "function"
    },
    {
      "inputs": [],
      "name": "mintFee",
      "outputs": [
        {
          "internalType": "uint256",
          "name": "",
          "type": "uint256"
        }
      ],
      "stateMutability": "view",
      "type": "function"
    },
    {
      "inputs": [],
      "name": "name",
      "outputs": [
        {
          "internalType": "string",
          "name": "",
          "type": "string"
        }
      ],
      "stateMutability": "view",
      "type": "function"
    },
    {
      "inputs": [],
      "name": "nftAmount",
      "outputs": [
        {
          "internalType": "uint256",
          "name": "",
          "type": "uint256"
        }
      ],
      "stateMutability": "view",
      "type": "function"
    },
    {
      "inputs": [],
      "name": "owner",
      "outputs": [
        {
          "internalType": "address",
          "name": "",
          "type": "address"
        }
      ],
      "stateMutability": "view",
      "type": "function"
    },
    {
      "inputs": [
        {
          "internalType": "uint256",
          "name": "tokenId",
          "type": "uint256"
        }
      ],
      "name": "ownerOf",
      "outputs": [
        {
          "internalType": "address",
          "name": "",
          "type": "address"
        }
      ],
      "stateMutability": "view",
      "type": "function"
    },
    {
      "inputs": [
        {
          "internalType": "uint256",
          "name": "requestId",
          "type": "uint256"
        },
        {
          "internalType": "uint256[]",
          "name": "randomWords",
          "type": "uint256[]"
        }
      ],
      "name": "rawFulfillRandomWords",
      "outputs": [],
      "stateMutability": "nonpayable",
      "type": "function"
    },
    {
      "inputs": [],
      "name": "renounceOwnership",
      "outputs": [],
      "stateMutability": "nonpayable",
      "type": "function"
    },
    {
      "inputs": [],
      "name": "requestMint",
      "outputs": [],
      "stateMutability": "payable",
      "type": "function"
    },
    {
      "inputs": [
        {
          "internalType": "address",
          "name": "from",
          "type": "address"
        },
        {
          "internalType": "address",
          "name": "to",
          "type": "address"
        },
        {
          "internalType": "uint256",
          "name": "tokenId",
          "type": "uint256"
        }
      ],
      "name": "safeTransferFrom",
      "outputs": [],
      "stateMutability": "nonpayable",
      "type": "function"
    },
    {
      "inputs": [
        {
          "internalType": "address",
          "name": "from",
          "type": "address"
        },
        {
          "internalType": "address",
          "name": "to",
          "type": "address"
        },
        {
          "internalType": "uint256",
          "name": "tokenId",
          "type": "uint256"
        },
        {
          "internalType": "bytes",
          "name": "data",
          "type": "bytes"
        }
      ],
      "name": "safeTransferFrom",
      "outputs": [],
      "stateMutability": "nonpayable",
      "type": "function"
    },
    {
      "inputs": [
        {
          "internalType": "address",
          "name": "operator",
          "type": "address"
        },
        {
          "internalType": "bool",
          "name": "approved",
          "type": "bool"
        }
      ],
      "name": "setApprovalForAll",
      "outputs": [],
      "stateMutability": "nonpayable",
      "type": "function"
    },
    {
      "inputs": [
        {
          "internalType": "bytes4",
          "name": "interfaceId",
          "type": "bytes4"
        }
      ],
      "name": "supportsInterface",
      "outputs": [
        {
          "internalType": "bool",
          "name": "",
          "type": "bool"
        }
      ],
      "stateMutability": "view",
      "type": "function"
    },
    {
      "inputs": [],
      "name": "symbol",
      "outputs": [
        {
          "internalType": "string",
          "name": "",
          "type": "string"
        }
      ],
      "stateMutability": "view",
      "type": "function"
    },
    {
      "inputs": [],
      "name": "tokenID",
      "outputs": [
        {
          "internalType": "uint256",
          "name": "",
          "type": "uint256"
        }
      ],
      "stateMutability": "view",
      "type": "function"
    },
    {
      "inputs": [
        {
          "internalType": "uint256",
          "name": "tokenId",
          "type": "uint256"
        }
      ],
      "name": "tokenURI",
      "outputs": [
        {
          "internalType": "string",
          "name": "",
          "type": "string"
        }
      ],
      "stateMutability": "view",
      "type": "function"
    },
    {
      "inputs": [
        {
          "internalType": "address",
          "name": "from",
          "type": "address"
        },
        {
          "internalType": "address",
          "name": "to",
          "type": "address"
        },
        {
          "internalType": "uint256",
          "name": "tokenId",
          "type": "uint256"
        }
      ],
      "name": "transferFrom",
      "outputs": [],
      "stateMutability": "nonpayable",
      "type": "function"
    },
    {
      "inputs": [
        {
          "internalType": "address",
          "name": "newOwner",
          "type": "address"
        }
      ],
      "name": "transferOwnership",
      "outputs": [],
      "stateMutability": "nonpayable",
      "type": "function"
    },
    {
      "inputs": [],
      "name": "withdraw",
      "outputs": [],
      "stateMutability": "payable",
      "type": "function"
    }
  ],
  "transactionHash": "0xd8432cc0574c1fced98b64f7f1255d6c28684a063130f4be6e441fc5d2f4356f",
  "args": [
    "0x8103B0A8A00be2DDC778e6e7eaa21791Cd364625",
    "0x474e34a077df58807dbe9c96d3c009b23b3c6d0cce433e59bbf5b34f823bc56c",
    1010,
    2500000,
    "1000000000000000",
    3,
    [
      "ipfs://QmaVkBn2tKmjbhphU7eyztbvSQU5EXDdqRyXZtRhSGgJGo",
      "ipfs://QmYQC5aGZu2PTH8XzbJrbDnvhj3gVs7ya33H9mqUNvST3d",
      "ipfs://QmZYmH5iDbD6v3U2ixoVAjioSzvWJszDzYdbeCLquGSpVm"
    ]
  ],
  "numDeployments": 3,
  "solcInputHash": "8b44c4a8bbe4aa04cd95eec36c9ff611",
  "bytecode": "0x6101406040523480156200001257600080fd5b50604051620042e8380380620042e8833981810160405281019062000038919062000776565b6040518060400160405280600781526020017f497066734e4654000000000000000000000000000000000000000000000000008152506040518060400160405280600481526020017f694e465400000000000000000000000000000000000000000000000000000000815250888073ffffffffffffffffffffffffffffffffffffffff1660808173ffffffffffffffffffffffffffffffffffffffff1681525050508160009081620000eb919062000a89565b508060019081620000fd919062000a89565b5050506200012062000114620001cb60201b60201c565b620001d360201b60201c565b8673ffffffffffffffffffffffffffffffffffffffff1660a08173ffffffffffffffffffffffffffffffffffffffff16815250508560c081815250508467ffffffffffffffff1660e08167ffffffffffffffff16815250508363ffffffff166101008163ffffffff168152505060006008819055508261012081815250508160098190555080600b9080519060200190620001bd92919062000299565b505050505050505062000b70565b600033905090565b6000600760009054906101000a900473ffffffffffffffffffffffffffffffffffffffff16905081600760006101000a81548173ffffffffffffffffffffffffffffffffffffffff021916908373ffffffffffffffffffffffffffffffffffffffff1602179055508173ffffffffffffffffffffffffffffffffffffffff168173ffffffffffffffffffffffffffffffffffffffff167f8be0079c531659141344cd1fd0a4f28419497f9722a3daafe3b4186f6b6457e060405160405180910390a35050565b828054828255906000526020600020908101928215620002e6579160200282015b82811115620002e5578251829081620002d4919062000a89565b5091602001919060010190620002ba565b5b509050620002f59190620002f9565b5090565b5b808211156200031d576000818162000313919062000321565b50600101620002fa565b5090565b5080546200032f9062000882565b6000825580601f1062000343575062000364565b601f01602090049060005260206000209081019062000363919062000367565b5b50565b5b808211156200038257600081600090555060010162000368565b5090565b6000604051905090565b600080fd5b600080fd5b600073ffffffffffffffffffffffffffffffffffffffff82169050919050565b6000620003c7826200039a565b9050919050565b620003d981620003ba565b8114620003e557600080fd5b50565b600081519050620003f981620003ce565b92915050565b6000819050919050565b6200041481620003ff565b81146200042057600080fd5b50565b600081519050620004348162000409565b92915050565b600067ffffffffffffffff82169050919050565b62000459816200043a565b81146200046557600080fd5b50565b60008151905062000479816200044e565b92915050565b600063ffffffff82169050919050565b6200049a816200047f565b8114620004a657600080fd5b50565b600081519050620004ba816200048f565b92915050565b6000819050919050565b620004d581620004c0565b8114620004e157600080fd5b50565b600081519050620004f581620004ca565b92915050565b600080fd5b6000601f19601f8301169050919050565b7f4e487b7100000000000000000000000000000000000000000000000000000000600052604160045260246000fd5b6200054b8262000500565b810181811067ffffffffffffffff821117156200056d576200056c62000511565b5b80604052505050565b60006200058262000386565b905062000590828262000540565b919050565b600067ffffffffffffffff821115620005b357620005b262000511565b5b602082029050602081019050919050565b600080fd5b600080fd5b600067ffffffffffffffff821115620005ec57620005eb62000511565b5b620005f78262000500565b9050602081019050919050565b60005b838110156200062457808201518184015260208101905062000607565b60008484015250505050565b6000620006476200064184620005ce565b62000576565b905082815260208101848484011115620006665762000665620005c9565b5b6200067384828562000604565b509392505050565b600082601f830112620006935762000692620004fb565b5b8151620006a584826020860162000630565b91505092915050565b6000620006c5620006bf8462000595565b62000576565b90508083825260208201905060208402830185811115620006eb57620006ea620005c4565b5b835b818110156200073957805167ffffffffffffffff811115620007145762000713620004fb565b5b8086016200072389826200067b565b85526020850194505050602081019050620006ed565b5050509392505050565b600082601f8301126200075b576200075a620004fb565b5b81516200076d848260208601620006ae565b91505092915050565b600080600080600080600060e0888a03121562000798576200079762000390565b5b6000620007a88a828b01620003e8565b9750506020620007bb8a828b0162000423565b9650506040620007ce8a828b0162000468565b9550506060620007e18a828b01620004a9565b9450506080620007f48a828b01620004e4565b93505060a0620008078a828b01620004e4565b92505060c088015167ffffffffffffffff8111156200082b576200082a62000395565b5b620008398a828b0162000743565b91505092959891949750929550565b600081519050919050565b7f4e487b7100000000000000000000000000000000000000000000000000000000600052602260045260246000fd5b600060028204905060018216806200089b57607f821691505b602082108103620008b157620008b062000853565b5b50919050565b60008190508160005260206000209050919050565b60006020601f8301049050919050565b600082821b905092915050565b6000600883026200091b7fffffffffffffffffffffffffffffffffffffffffffffffffffffffffffffffff82620008dc565b620009278683620008dc565b95508019841693508086168417925050509392505050565b6000819050919050565b60006200096a620009646200095e84620004c0565b6200093f565b620004c0565b9050919050565b6000819050919050565b620009868362000949565b6200099e620009958262000971565b848454620008e9565b825550505050565b600090565b620009b5620009a6565b620009c28184846200097b565b505050565b5b81811015620009ea57620009de600082620009ab565b600181019050620009c8565b5050565b601f82111562000a395762000a0381620008b7565b62000a0e84620008cc565b8101602085101562000a1e578190505b62000a3662000a2d85620008cc565b830182620009c7565b50505b505050565b600082821c905092915050565b600062000a5e6000198460080262000a3e565b1980831691505092915050565b600062000a79838362000a4b565b9150826002028217905092915050565b62000a948262000848565b67ffffffffffffffff81111562000ab05762000aaf62000511565b5b62000abc825462000882565b62000ac9828285620009ee565b600060209050601f83116001811462000b01576000841562000aec578287015190505b62000af8858262000a6b565b86555062000b68565b601f19841662000b1186620008b7565b60005b8281101562000b3b5784890151825560018201915060208501945060208101905062000b14565b8683101562000b5b578489015162000b57601f89168262000a4b565b8355505b6001600288020188555050505b505050505050565b60805160a05160c05160e051610100516101205161371a62000bce600039600081816107c70152610c0801526000610ced01526000610cca01526000610ca901526000610c6d0152600081816107eb015261083f015261371a6000f3fe6080604052600436106101355760003560e01c806370a08231116100ab578063a5c42ef11161006f578063a5c42ef1146103f3578063afb7bed91461041e578063b88d4fde14610428578063c87b56dd14610451578063e985e9c51461048e578063f2fde38b146104cb57610135565b806370a0823114610320578063715018a61461035d5780638da5cb5b1461037457806395d89b411461039f578063a22cb465146103ca57610135565b80631fe543e3116100fd5780631fe543e31461023357806323b872dd1461025c578063288b3453146102855780633ccfd60b146102b057806342842e0e146102ba5780636352211e146102e357610135565b806301ffc9a71461013a57806306fdde0314610177578063081812fc146101a2578063095ea7b3146101df57806313966db514610208575b600080fd5b34801561014657600080fd5b50610161600480360381019061015c9190612239565b6104f4565b60405161016e9190612281565b60405180910390f35b34801561018357600080fd5b5061018c6105d6565b604051610199919061232c565b60405180910390f35b3480156101ae57600080fd5b506101c960048036038101906101c49190612384565b610668565b6040516101d691906123f2565b60405180910390f35b3480156101eb57600080fd5b5061020660048036038101906102019190612439565b6106ae565b005b34801561021457600080fd5b5061021d6107c5565b60405161022a9190612488565b60405180910390f35b34801561023f57600080fd5b5061025a600480360381019061025591906125eb565b6107e9565b005b34801561026857600080fd5b50610283600480360381019061027e9190612647565b6108a9565b005b34801561029157600080fd5b5061029a610909565b6040516102a79190612488565b60405180910390f35b6102b861090f565b005b3480156102c657600080fd5b506102e160048036038101906102dc9190612647565b6109bd565b005b3480156102ef57600080fd5b5061030a60048036038101906103059190612384565b6109dd565b60405161031791906123f2565b60405180910390f35b34801561032c57600080fd5b506103476004803603810190610342919061269a565b610a63565b6040516103549190612488565b60405180910390f35b34801561036957600080fd5b50610372610b1a565b005b34801561038057600080fd5b50610389610b2e565b60405161039691906123f2565b60405180910390f35b3480156103ab57600080fd5b506103b4610b58565b6040516103c1919061232c565b60405180910390f35b3480156103d657600080fd5b506103f160048036038101906103ec91906126f3565b610bea565b005b3480156103ff57600080fd5b50610408610c00565b6040516104159190612488565b60405180910390f35b610426610c06565b005b34801561043457600080fd5b5061044f600480360381019061044a91906127e8565b610df5565b005b34801561045d57600080fd5b5061047860048036038101906104739190612384565b610e57565b604051610485919061232c565b60405180910390f35b34801561049a57600080fd5b506104b560048036038101906104b0919061286b565b610f69565b6040516104c29190612281565b60405180910390f35b3480156104d757600080fd5b506104f260048036038101906104ed919061269a565b610ffd565b005b60007f80ac58cd000000000000000000000000000000000000000000000000000000007bffffffffffffffffffffffffffffffffffffffffffffffffffffffff1916827bffffffffffffffffffffffffffffffffffffffffffffffffffffffff191614806105bf57507f5b5e139f000000000000000000000000000000000000000000000000000000007bffffffffffffffffffffffffffffffffffffffffffffffffffffffff1916827bffffffffffffffffffffffffffffffffffffffffffffffffffffffff1916145b806105cf57506105ce82611080565b5b9050919050565b6060600080546105e5906128da565b80601f0160208091040260200160405190810160405280929190818152602001828054610611906128da565b801561065e5780601f106106335761010080835404028352916020019161065e565b820191906000526020600020905b81548152906001019060200180831161064157829003601f168201915b5050505050905090565b6000610673826110ea565b6004600083815260200190815260200160002060009054906101000a900473ffffffffffffffffffffffffffffffffffffffff169050919050565b60006106b9826109dd565b90508073ffffffffffffffffffffffffffffffffffffffff168373ffffffffffffffffffffffffffffffffffffffff1603610729576040517f08c379a00000000000000000000000000000000000000000000000000000000081526004016107209061297d565b60405180910390fd5b8073ffffffffffffffffffffffffffffffffffffffff16610748611135565b73ffffffffffffffffffffffffffffffffffffffff161480610777575061077681610771611135565b610f69565b5b6107b6576040517f08c379a00000000000000000000000000000000000000000000000000000000081526004016107ad90612a0f565b60405180910390fd5b6107c0838361113d565b505050565b7f000000000000000000000000000000000000000000000000000000000000000081565b7f000000000000000000000000000000000000000000000000000000000000000073ffffffffffffffffffffffffffffffffffffffff163373ffffffffffffffffffffffffffffffffffffffff161461089b57337f00000000000000000000000000000000000000000000000000000000000000006040517f1cf993f4000000000000000000000000000000000000000000000000000000008152600401610892929190612a2f565b60405180910390fd5b6108a582826111f6565b5050565b6108ba6108b4611135565b8261135c565b6108f9576040517f08c379a00000000000000000000000000000000000000000000000000000000081526004016108f090612aca565b60405180910390fd5b6109048383836113f1565b505050565b60095481565b6109176116ea565b60003373ffffffffffffffffffffffffffffffffffffffff164760405161093d90612b1b565b60006040518083038185875af1925050503d806000811461097a576040519150601f19603f3d011682016040523d82523d6000602084013e61097f565b606091505b50509050806109ba576040517f65a0789500000000000000000000000000000000000000000000000000000000815260040160405180910390fd5b50565b6109d883838360405180602001604052806000815250610df5565b505050565b6000806109e983611768565b9050600073ffffffffffffffffffffffffffffffffffffffff168173ffffffffffffffffffffffffffffffffffffffff1603610a5a576040517f08c379a0000000000000000000000000000000000000000000000000000000008152600401610a5190612b7c565b60405180910390fd5b80915050919050565b60008073ffffffffffffffffffffffffffffffffffffffff168273ffffffffffffffffffffffffffffffffffffffff1603610ad3576040517f08c379a0000000000000000000000000000000000000000000000000000000008152600401610aca90612c0e565b60405180910390fd5b600360008373ffffffffffffffffffffffffffffffffffffffff1673ffffffffffffffffffffffffffffffffffffffff168152602001908152602001600020549050919050565b610b226116ea565b610b2c60006117a5565b565b6000600760009054906101000a900473ffffffffffffffffffffffffffffffffffffffff16905090565b606060018054610b67906128da565b80601f0160208091040260200160405190810160405280929190818152602001828054610b93906128da565b8015610be05780601f10610bb557610100808354040283529160200191610be0565b820191906000526020600020905b815481529060010190602001808311610bc357829003601f168201915b5050505050905090565b610bfc610bf5611135565b838361186b565b5050565b60085481565b7f0000000000000000000000000000000000000000000000000000000000000000341015610c69576040517f08c379a0000000000000000000000000000000000000000000000000000000008152600401610c6090612c7a565b60405180910390fd5b60007f000000000000000000000000000000000000000000000000000000000000000073ffffffffffffffffffffffffffffffffffffffff16635d3b1d307f00000000000000000000000000000000000000000000000000000000000000007f000000000000000000000000000000000000000000000000000000000000000060037f000000000000000000000000000000000000000000000000000000000000000060016040518663ffffffff1660e01b8152600401610d2e959493929190612d12565b6020604051808303816000875af1158015610d4d573d6000803e3d6000fd5b505050506040513d601f19601f82011682018060405250810190610d719190612d7a565b905033600a600083815260200190815260200160002060006101000a81548173ffffffffffffffffffffffffffffffffffffffff021916908373ffffffffffffffffffffffffffffffffffffffff160217905550807fed7e1cc32737aac2f5c91387879185d74677bc68b69562a9d6dcd77622e8b62d60405160405180910390a250565b610e06610e00611135565b8361135c565b610e45576040517f08c379a0000000000000000000000000000000000000000000000000000000008152600401610e3c90612aca565b60405180910390fd5b610e51848484846119d7565b50505050565b6060610e62826110ea565b6000600660008481526020019081526020016000208054610e82906128da565b80601f0160208091040260200160405190810160405280929190818152602001828054610eae906128da565b8015610efb5780601f10610ed057610100808354040283529160200191610efb565b820191906000526020600020905b815481529060010190602001808311610ede57829003601f168201915b505050505090506000610f0c611a33565b90506000815103610f21578192505050610f64565b600082511115610f56578082604051602001610f3e929190612de3565b60405160208183030381529060405292505050610f64565b610f5f84611a4a565b925050505b919050565b6000600560008473ffffffffffffffffffffffffffffffffffffffff1673ffffffffffffffffffffffffffffffffffffffff16815260200190815260200160002060008373ffffffffffffffffffffffffffffffffffffffff1673ffffffffffffffffffffffffffffffffffffffff16815260200190815260200160002060009054906101000a900460ff16905092915050565b6110056116ea565b600073ffffffffffffffffffffffffffffffffffffffff168173ffffffffffffffffffffffffffffffffffffffff1603611074576040517f08c379a000000000000000000000000000000000000000000000000000000000815260040161106b90612e79565b60405180910390fd5b61107d816117a5565b50565b60007f01ffc9a7000000000000000000000000000000000000000000000000000000007bffffffffffffffffffffffffffffffffffffffffffffffffffffffff1916827bffffffffffffffffffffffffffffffffffffffffffffffffffffffff1916149050919050565b6110f381611ab2565b611132576040517f08c379a000000000000000000000000000000000000000000000000000000000815260040161112990612b7c565b60405180910390fd5b50565b600033905090565b816004600083815260200190815260200160002060006101000a81548173ffffffffffffffffffffffffffffffffffffffff021916908373ffffffffffffffffffffffffffffffffffffffff160217905550808273ffffffffffffffffffffffffffffffffffffffff166111b0836109dd565b73ffffffffffffffffffffffffffffffffffffffff167f8c5be1e5ebec7d5bd14f71427d1e84f3dd0314c0f7b2291e5b200ac8c7c3b92560405160405180910390a45050565b611235600a600084815260200190815260200160002060009054906101000a900473ffffffffffffffffffffffffffffffffffffffff16600854611af3565b61130f600854600b6009548460008151811061125457611253612e99565b5b60200260200101516112669190612ef7565b8154811061127757611276612e99565b5b90600052602060002001805461128c906128da565b80601f01602080910402602001604051908101604052809291908181526020018280546112b8906128da565b80156113055780601f106112da57610100808354040283529160200191611305565b820191906000526020600020905b8154815290600101906020018083116112e857829003601f168201915b5050505050611b11565b6008547f78c762231aabcfdc3db207675fd285a1a44ed66a4ec21da6fdd9b63f18c79ab060405160405180910390a26001600860008282546113519190612f57565b925050819055505050565b600080611368836109dd565b90508073ffffffffffffffffffffffffffffffffffffffff168473ffffffffffffffffffffffffffffffffffffffff1614806113aa57506113a98185610f69565b5b806113e857508373ffffffffffffffffffffffffffffffffffffffff166113d084610668565b73ffffffffffffffffffffffffffffffffffffffff16145b91505092915050565b8273ffffffffffffffffffffffffffffffffffffffff16611411826109dd565b73ffffffffffffffffffffffffffffffffffffffff1614611467576040517f08c379a000000000000000000000000000000000000000000000000000000000815260040161145e90612ffd565b60405180910390fd5b600073ffffffffffffffffffffffffffffffffffffffff168273ffffffffffffffffffffffffffffffffffffffff16036114d6576040517f08c379a00000000000000000000000000000000000000000000000000000000081526004016114cd9061308f565b60405180910390fd5b6114e38383836001611b7e565b8273ffffffffffffffffffffffffffffffffffffffff16611503826109dd565b73ffffffffffffffffffffffffffffffffffffffff1614611559576040517f08c379a000000000000000000000000000000000000000000000000000000000815260040161155090612ffd565b60405180910390fd5b6004600082815260200190815260200160002060006101000a81549073ffffffffffffffffffffffffffffffffffffffff02191690556001600360008573ffffffffffffffffffffffffffffffffffffffff1673ffffffffffffffffffffffffffffffffffffffff168152602001908152602001600020600082825403925050819055506001600360008473ffffffffffffffffffffffffffffffffffffffff1673ffffffffffffffffffffffffffffffffffffffff16815260200190815260200160002060008282540192505081905550816002600083815260200190815260200160002060006101000a81548173ffffffffffffffffffffffffffffffffffffffff021916908373ffffffffffffffffffffffffffffffffffffffff160217905550808273ffffffffffffffffffffffffffffffffffffffff168473ffffffffffffffffffffffffffffffffffffffff167fddf252ad1be2c89b69c2b068fc378daa952ba7f163c4a11628f55a4df523b3ef60405160405180910390a46116e58383836001611b84565b505050565b6116f2611135565b73ffffffffffffffffffffffffffffffffffffffff16611710610b2e565b73ffffffffffffffffffffffffffffffffffffffff1614611766576040517f08c379a000000000000000000000000000000000000000000000000000000000815260040161175d906130fb565b60405180910390fd5b565b60006002600083815260200190815260200160002060009054906101000a900473ffffffffffffffffffffffffffffffffffffffff169050919050565b6000600760009054906101000a900473ffffffffffffffffffffffffffffffffffffffff16905081600760006101000a81548173ffffffffffffffffffffffffffffffffffffffff021916908373ffffffffffffffffffffffffffffffffffffffff1602179055508173ffffffffffffffffffffffffffffffffffffffff168173ffffffffffffffffffffffffffffffffffffffff167f8be0079c531659141344cd1fd0a4f28419497f9722a3daafe3b4186f6b6457e060405160405180910390a35050565b8173ffffffffffffffffffffffffffffffffffffffff168373ffffffffffffffffffffffffffffffffffffffff16036118d9576040517f08c379a00000000000000000000000000000000000000000000000000000000081526004016118d090613167565b60405180910390fd5b80600560008573ffffffffffffffffffffffffffffffffffffffff1673ffffffffffffffffffffffffffffffffffffffff16815260200190815260200160002060008473ffffffffffffffffffffffffffffffffffffffff1673ffffffffffffffffffffffffffffffffffffffff16815260200190815260200160002060006101000a81548160ff0219169083151502179055508173ffffffffffffffffffffffffffffffffffffffff168373ffffffffffffffffffffffffffffffffffffffff167f17307eab39ab6107e8899845ad3d59bd9653f200f220920489ca2b5937696c31836040516119ca9190612281565b60405180910390a3505050565b6119e28484846113f1565b6119ee84848484611b8a565b611a2d576040517f08c379a0000000000000000000000000000000000000000000000000000000008152600401611a24906131f9565b60405180910390fd5b50505050565b606060405180602001604052806000815250905090565b6060611a55826110ea565b6000611a5f611a33565b90506000815111611a7f5760405180602001604052806000815250611aaa565b80611a8984611d11565b604051602001611a9a929190612de3565b6040516020818303038152906040525b915050919050565b60008073ffffffffffffffffffffffffffffffffffffffff16611ad483611768565b73ffffffffffffffffffffffffffffffffffffffff1614159050919050565b611b0d828260405180602001604052806000815250611ddf565b5050565b611b1a82611ab2565b611b59576040517f08c379a0000000000000000000000000000000000000000000000000000000008152600401611b509061328b565b60405180910390fd5b80600660008481526020019081526020016000209081611b799190613457565b505050565b50505050565b50505050565b6000611bab8473ffffffffffffffffffffffffffffffffffffffff16611e3a565b15611d04578373ffffffffffffffffffffffffffffffffffffffff1663150b7a02611bd4611135565b8786866040518563ffffffff1660e01b8152600401611bf6949392919061357e565b6020604051808303816000875af1925050508015611c3257506040513d601f19601f82011682018060405250810190611c2f91906135df565b60015b611cb4573d8060008114611c62576040519150601f19603f3d011682016040523d82523d6000602084013e611c67565b606091505b506000815103611cac576040517f08c379a0000000000000000000000000000000000000000000000000000000008152600401611ca3906131f9565b60405180910390fd5b805181602001fd5b63150b7a0260e01b7bffffffffffffffffffffffffffffffffffffffffffffffffffffffff1916817bffffffffffffffffffffffffffffffffffffffffffffffffffffffff191614915050611d09565b600190505b949350505050565b606060006001611d2084611e5d565b01905060008167ffffffffffffffff811115611d3f57611d3e6124a8565b5b6040519080825280601f01601f191660200182016040528015611d715781602001600182028036833780820191505090505b509050600082602001820190505b600115611dd4578080600190039150507f3031323334353637383961626364656600000000000000000000000000000000600a86061a8153600a8581611dc857611dc7612ec8565b5b04945060008503611d7f575b819350505050919050565b611de98383611fb0565b611df66000848484611b8a565b611e35576040517f08c379a0000000000000000000000000000000000000000000000000000000008152600401611e2c906131f9565b60405180910390fd5b505050565b6000808273ffffffffffffffffffffffffffffffffffffffff163b119050919050565b600080600090507a184f03e93ff9f4daa797ed6e38ed64bf6a1f0100000000000000008310611ebb577a184f03e93ff9f4daa797ed6e38ed64bf6a1f0100000000000000008381611eb157611eb0612ec8565b5b0492506040810190505b6d04ee2d6d415b85acef81000000008310611ef8576d04ee2d6d415b85acef81000000008381611eee57611eed612ec8565b5b0492506020810190505b662386f26fc100008310611f2757662386f26fc100008381611f1d57611f1c612ec8565b5b0492506010810190505b6305f5e1008310611f50576305f5e1008381611f4657611f45612ec8565b5b0492506008810190505b6127108310611f75576127108381611f6b57611f6a612ec8565b5b0492506004810190505b60648310611f985760648381611f8e57611f8d612ec8565b5b0492506002810190505b600a8310611fa7576001810190505b80915050919050565b600073ffffffffffffffffffffffffffffffffffffffff168273ffffffffffffffffffffffffffffffffffffffff160361201f576040517f08c379a000000000000000000000000000000000000000000000000000000000815260040161201690613658565b60405180910390fd5b61202881611ab2565b15612068576040517f08c379a000000000000000000000000000000000000000000000000000000000815260040161205f906136c4565b60405180910390fd5b612076600083836001611b7e565b61207f81611ab2565b156120bf576040517f08c379a00000000000000000000000000000000000000000000000000000000081526004016120b6906136c4565b60405180910390fd5b6001600360008473ffffffffffffffffffffffffffffffffffffffff1673ffffffffffffffffffffffffffffffffffffffff16815260200190815260200160002060008282540192505081905550816002600083815260200190815260200160002060006101000a81548173ffffffffffffffffffffffffffffffffffffffff021916908373ffffffffffffffffffffffffffffffffffffffff160217905550808273ffffffffffffffffffffffffffffffffffffffff16600073ffffffffffffffffffffffffffffffffffffffff167fddf252ad1be2c89b69c2b068fc378daa952ba7f163c4a11628f55a4df523b3ef60405160405180910390a46121c9600083836001611b84565b5050565b6000604051905090565b600080fd5b600080fd5b60007fffffffff0000000000000000000000000000000000000000000000000000000082169050919050565b612216816121e1565b811461222157600080fd5b50565b6000813590506122338161220d565b92915050565b60006020828403121561224f5761224e6121d7565b5b600061225d84828501612224565b91505092915050565b60008115159050919050565b61227b81612266565b82525050565b60006020820190506122966000830184612272565b92915050565b600081519050919050565b600082825260208201905092915050565b60005b838110156122d65780820151818401526020810190506122bb565b60008484015250505050565b6000601f19601f8301169050919050565b60006122fe8261229c565b61230881856122a7565b93506123188185602086016122b8565b612321816122e2565b840191505092915050565b6000602082019050818103600083015261234681846122f3565b905092915050565b6000819050919050565b6123618161234e565b811461236c57600080fd5b50565b60008135905061237e81612358565b92915050565b60006020828403121561239a576123996121d7565b5b60006123a88482850161236f565b91505092915050565b600073ffffffffffffffffffffffffffffffffffffffff82169050919050565b60006123dc826123b1565b9050919050565b6123ec816123d1565b82525050565b600060208201905061240760008301846123e3565b92915050565b612416816123d1565b811461242157600080fd5b50565b6000813590506124338161240d565b92915050565b600080604083850312156124505761244f6121d7565b5b600061245e85828601612424565b925050602061246f8582860161236f565b9150509250929050565b6124828161234e565b82525050565b600060208201905061249d6000830184612479565b92915050565b600080fd5b7f4e487b7100000000000000000000000000000000000000000000000000000000600052604160045260246000fd5b6124e0826122e2565b810181811067ffffffffffffffff821117156124ff576124fe6124a8565b5b80604052505050565b60006125126121cd565b905061251e82826124d7565b919050565b600067ffffffffffffffff82111561253e5761253d6124a8565b5b602082029050602081019050919050565b600080fd5b600061256761256284612523565b612508565b9050808382526020820190506020840283018581111561258a5761258961254f565b5b835b818110156125b3578061259f888261236f565b84526020840193505060208101905061258c565b5050509392505050565b600082601f8301126125d2576125d16124a3565b5b81356125e2848260208601612554565b91505092915050565b60008060408385031215612602576126016121d7565b5b60006126108582860161236f565b925050602083013567ffffffffffffffff811115612631576126306121dc565b5b61263d858286016125bd565b9150509250929050565b6000806000606084860312156126605761265f6121d7565b5b600061266e86828701612424565b935050602061267f86828701612424565b92505060406126908682870161236f565b9150509250925092565b6000602082840312156126b0576126af6121d7565b5b60006126be84828501612424565b91505092915050565b6126d081612266565b81146126db57600080fd5b50565b6000813590506126ed816126c7565b92915050565b6000806040838503121561270a576127096121d7565b5b600061271885828601612424565b9250506020612729858286016126de565b9150509250929050565b600080fd5b600067ffffffffffffffff821115612753576127526124a8565b5b61275c826122e2565b9050602081019050919050565b82818337600083830152505050565b600061278b61278684612738565b612508565b9050828152602081018484840111156127a7576127a6612733565b5b6127b2848285612769565b509392505050565b600082601f8301126127cf576127ce6124a3565b5b81356127df848260208601612778565b91505092915050565b60008060008060808587031215612802576128016121d7565b5b600061281087828801612424565b945050602061282187828801612424565b93505060406128328782880161236f565b925050606085013567ffffffffffffffff811115612853576128526121dc565b5b61285f878288016127ba565b91505092959194509250565b60008060408385031215612882576128816121d7565b5b600061289085828601612424565b92505060206128a185828601612424565b9150509250929050565b7f4e487b7100000000000000000000000000000000000000000000000000000000600052602260045260246000fd5b600060028204905060018216806128f257607f821691505b602082108103612905576129046128ab565b5b50919050565b7f4552433732313a20617070726f76616c20746f2063757272656e74206f776e6560008201527f7200000000000000000000000000000000000000000000000000000000000000602082015250565b60006129676021836122a7565b91506129728261290b565b604082019050919050565b600060208201905081810360008301526129968161295a565b9050919050565b7f4552433732313a20617070726f76652063616c6c6572206973206e6f7420746f60008201527f6b656e206f776e6572206f7220617070726f76656420666f7220616c6c000000602082015250565b60006129f9603d836122a7565b9150612a048261299d565b604082019050919050565b60006020820190508181036000830152612a28816129ec565b9050919050565b6000604082019050612a4460008301856123e3565b612a5160208301846123e3565b9392505050565b7f4552433732313a2063616c6c6572206973206e6f7420746f6b656e206f776e6560008201527f72206f7220617070726f76656400000000000000000000000000000000000000602082015250565b6000612ab4602d836122a7565b9150612abf82612a58565b604082019050919050565b60006020820190508181036000830152612ae381612aa7565b9050919050565b600081905092915050565b50565b6000612b05600083612aea565b9150612b1082612af5565b600082019050919050565b6000612b2682612af8565b9150819050919050565b7f4552433732313a20696e76616c696420746f6b656e2049440000000000000000600082015250565b6000612b666018836122a7565b9150612b7182612b30565b602082019050919050565b60006020820190508181036000830152612b9581612b59565b9050919050565b7f4552433732313a2061646472657373207a65726f206973206e6f74206120766160008201527f6c6964206f776e65720000000000000000000000000000000000000000000000602082015250565b6000612bf86029836122a7565b9150612c0382612b9c565b604082019050919050565b60006020820190508181036000830152612c2781612beb565b9050919050565b7f4e6f7420656e6f75676820455448000000000000000000000000000000000000600082015250565b6000612c64600e836122a7565b9150612c6f82612c2e565b602082019050919050565b60006020820190508181036000830152612c9381612c57565b9050919050565b6000819050919050565b612cad81612c9a565b82525050565b600067ffffffffffffffff82169050919050565b612cd081612cb3565b82525050565b600061ffff82169050919050565b612ced81612cd6565b82525050565b600063ffffffff82169050919050565b612d0c81612cf3565b82525050565b600060a082019050612d276000830188612ca4565b612d346020830187612cc7565b612d416040830186612ce4565b612d4e6060830185612d03565b612d5b6080830184612d03565b9695505050505050565b600081519050612d7481612358565b92915050565b600060208284031215612d9057612d8f6121d7565b5b6000612d9e84828501612d65565b91505092915050565b600081905092915050565b6000612dbd8261229c565b612dc78185612da7565b9350612dd78185602086016122b8565b80840191505092915050565b6000612def8285612db2565b9150612dfb8284612db2565b91508190509392505050565b7f4f776e61626c653a206e6577206f776e657220697320746865207a65726f206160008201527f6464726573730000000000000000000000000000000000000000000000000000602082015250565b6000612e636026836122a7565b9150612e6e82612e07565b604082019050919050565b60006020820190508181036000830152612e9281612e56565b9050919050565b7f4e487b7100000000000000000000000000000000000000000000000000000000600052603260045260246000fd5b7f4e487b7100000000000000000000000000000000000000000000000000000000600052601260045260246000fd5b6000612f028261234e565b9150612f0d8361234e565b925082612f1d57612f1c612ec8565b5b828206905092915050565b7f4e487b7100000000000000000000000000000000000000000000000000000000600052601160045260246000fd5b6000612f628261234e565b9150612f6d8361234e565b9250828201905080821115612f8557612f84612f28565b5b92915050565b7f4552433732313a207472616e736665722066726f6d20696e636f72726563742060008201527f6f776e6572000000000000000000000000000000000000000000000000000000602082015250565b6000612fe76025836122a7565b9150612ff282612f8b565b604082019050919050565b6000602082019050818103600083015261301681612fda565b9050919050565b7f4552433732313a207472616e7366657220746f20746865207a65726f2061646460008201527f7265737300000000000000000000000000000000000000000000000000000000602082015250565b60006130796024836122a7565b91506130848261301d565b604082019050919050565b600060208201905081810360008301526130a88161306c565b9050919050565b7f4f776e61626c653a2063616c6c6572206973206e6f7420746865206f776e6572600082015250565b60006130e56020836122a7565b91506130f0826130af565b602082019050919050565b60006020820190508181036000830152613114816130d8565b9050919050565b7f4552433732313a20617070726f766520746f2063616c6c657200000000000000600082015250565b60006131516019836122a7565b915061315c8261311b565b602082019050919050565b6000602082019050818103600083015261318081613144565b9050919050565b7f4552433732313a207472616e7366657220746f206e6f6e20455243373231526560008201527f63656976657220696d706c656d656e7465720000000000000000000000000000602082015250565b60006131e36032836122a7565b91506131ee82613187565b604082019050919050565b60006020820190508181036000830152613212816131d6565b9050919050565b7f45524337323155524953746f726167653a2055524920736574206f66206e6f6e60008201527f6578697374656e7420746f6b656e000000000000000000000000000000000000602082015250565b6000613275602e836122a7565b915061328082613219565b604082019050919050565b600060208201905081810360008301526132a481613268565b9050919050565b60008190508160005260206000209050919050565b60006020601f8301049050919050565b600082821b905092915050565b60006008830261330d7fffffffffffffffffffffffffffffffffffffffffffffffffffffffffffffffff826132d0565b61331786836132d0565b95508019841693508086168417925050509392505050565b6000819050919050565b600061335461334f61334a8461234e565b61332f565b61234e565b9050919050565b6000819050919050565b61336e83613339565b61338261337a8261335b565b8484546132dd565b825550505050565b600090565b61339761338a565b6133a2818484613365565b505050565b5b818110156133c6576133bb60008261338f565b6001810190506133a8565b5050565b601f82111561340b576133dc816132ab565b6133e5846132c0565b810160208510156133f4578190505b613408613400856132c0565b8301826133a7565b50505b505050565b600082821c905092915050565b600061342e60001984600802613410565b1980831691505092915050565b6000613447838361341d565b9150826002028217905092915050565b6134608261229c565b67ffffffffffffffff811115613479576134786124a8565b5b61348382546128da565b61348e8282856133ca565b600060209050601f8311600181146134c157600084156134af578287015190505b6134b9858261343b565b865550613521565b601f1984166134cf866132ab565b60005b828110156134f7578489015182556001820191506020850194506020810190506134d2565b868310156135145784890151613510601f89168261341d565b8355505b6001600288020188555050505b505050505050565b600081519050919050565b600082825260208201905092915050565b600061355082613529565b61355a8185613534565b935061356a8185602086016122b8565b613573816122e2565b840191505092915050565b600060808201905061359360008301876123e3565b6135a060208301866123e3565b6135ad6040830185612479565b81810360608301526135bf8184613545565b905095945050505050565b6000815190506135d98161220d565b92915050565b6000602082840312156135f5576135f46121d7565b5b6000613603848285016135ca565b91505092915050565b7f4552433732313a206d696e7420746f20746865207a65726f2061646472657373600082015250565b60006136426020836122a7565b915061364d8261360c565b602082019050919050565b6000602082019050818103600083015261367181613635565b9050919050565b7f4552433732313a20746f6b656e20616c7265616479206d696e74656400000000600082015250565b60006136ae601c836122a7565b91506136b982613678565b602082019050919050565b600060208201905081810360008301526136dd816136a1565b905091905056fea26469706673582212201404ea149809549c5bb2ae8c8499c1d1269b62a110daadefb98b9fa198c6280f64736f6c63430008120033",
  "devdoc": {
    "events": {
      "Approval(address,address,uint256)": {
        "details": "Emitted when `owner` enables `approved` to manage the `tokenId` token."
      },
      "ApprovalForAll(address,address,bool)": {
        "details": "Emitted when `owner` enables or disables (`approved`) `operator` to manage all of its assets."
      },
      "Transfer(address,address,uint256)": {
        "details": "Emitted when `tokenId` token is transferred from `from` to `to`."
      }
    },
    "kind": "dev",
    "methods": {
      "approve(address,uint256)": {
        "details": "See {IERC721-approve}."
      },
      "balanceOf(address)": {
        "details": "See {IERC721-balanceOf}."
      },
      "getApproved(uint256)": {
        "details": "See {IERC721-getApproved}."
      },
      "isApprovedForAll(address,address)": {
        "details": "See {IERC721-isApprovedForAll}."
      },
      "name()": {
        "details": "See {IERC721Metadata-name}."
      },
      "owner()": {
        "details": "Returns the address of the current owner."
      },
      "ownerOf(uint256)": {
        "details": "See {IERC721-ownerOf}."
      },
      "renounceOwnership()": {
        "details": "Leaves the contract without owner. It will not be possible to call `onlyOwner` functions anymore. Can only be called by the current owner. NOTE: Renouncing ownership will leave the contract without an owner, thereby removing any functionality that is only available to the owner."
      },
      "safeTransferFrom(address,address,uint256)": {
        "details": "See {IERC721-safeTransferFrom}."
      },
      "safeTransferFrom(address,address,uint256,bytes)": {
        "details": "See {IERC721-safeTransferFrom}."
      },
      "setApprovalForAll(address,bool)": {
        "details": "See {IERC721-setApprovalForAll}."
      },
      "supportsInterface(bytes4)": {
        "details": "See {IERC165-supportsInterface}."
      },
      "symbol()": {
        "details": "See {IERC721Metadata-symbol}."
      },
      "tokenURI(uint256)": {
        "details": "See {IERC721Metadata-tokenURI}."
      },
      "transferFrom(address,address,uint256)": {
        "details": "See {IERC721-transferFrom}."
      },
      "transferOwnership(address)": {
        "details": "Transfers ownership of the contract to a new account (`newOwner`). Can only be called by the current owner."
      }
    },
    "version": 1
  },
  "userdoc": {
    "kind": "user",
    "methods": {},
    "version": 1
  },
  "storageLayout": {
    "storage": [
      {
        "astId": 1005,
        "contract": "contracts/IpfsNFT.sol:IpfsNFT",
        "label": "_name",
        "offset": 0,
        "slot": "0",
        "type": "t_string_storage"
      },
      {
        "astId": 1007,
        "contract": "contracts/IpfsNFT.sol:IpfsNFT",
        "label": "_symbol",
        "offset": 0,
        "slot": "1",
        "type": "t_string_storage"
      },
      {
        "astId": 1011,
        "contract": "contracts/IpfsNFT.sol:IpfsNFT",
        "label": "_owners",
        "offset": 0,
        "slot": "2",
        "type": "t_mapping(t_uint256,t_address)"
      },
      {
        "astId": 1015,
        "contract": "contracts/IpfsNFT.sol:IpfsNFT",
        "label": "_balances",
        "offset": 0,
        "slot": "3",
        "type": "t_mapping(t_address,t_uint256)"
      },
      {
        "astId": 1019,
        "contract": "contracts/IpfsNFT.sol:IpfsNFT",
        "label": "_tokenApprovals",
        "offset": 0,
        "slot": "4",
        "type": "t_mapping(t_uint256,t_address)"
      },
      {
        "astId": 1025,
        "contract": "contracts/IpfsNFT.sol:IpfsNFT",
        "label": "_operatorApprovals",
        "offset": 0,
        "slot": "5",
        "type": "t_mapping(t_address,t_mapping(t_address,t_bool))"
      },
      {
        "astId": 2053,
        "contract": "contracts/IpfsNFT.sol:IpfsNFT",
        "label": "_tokenURIs",
        "offset": 0,
        "slot": "6",
        "type": "t_mapping(t_uint256,t_string_storage)"
      },
      {
        "astId": 874,
        "contract": "contracts/IpfsNFT.sol:IpfsNFT",
        "label": "_owner",
        "offset": 0,
        "slot": "7",
        "type": "t_address"
      },
      {
        "astId": 3825,
        "contract": "contracts/IpfsNFT.sol:IpfsNFT",
        "label": "tokenID",
        "offset": 0,
        "slot": "8",
        "type": "t_uint256"
      },
      {
        "astId": 3827,
        "contract": "contracts/IpfsNFT.sol:IpfsNFT",
        "label": "nftAmount",
        "offset": 0,
        "slot": "9",
        "type": "t_uint256"
      },
      {
        "astId": 3831,
        "contract": "contracts/IpfsNFT.sol:IpfsNFT",
        "label": "requestID2Address",
        "offset": 0,
        "slot": "10",
        "type": "t_mapping(t_uint256,t_address)"
      },
      {
        "astId": 3834,
        "contract": "contracts/IpfsNFT.sol:IpfsNFT",
        "label": "nftURIArr",
        "offset": 0,
        "slot": "11",
        "type": "t_array(t_string_storage)dyn_storage"
      }
    ],
    "types": {
      "t_address": {
        "encoding": "inplace",
        "label": "address",
        "numberOfBytes": "20"
      },
      "t_array(t_string_storage)dyn_storage": {
        "base": "t_string_storage",
        "encoding": "dynamic_array",
        "label": "string[]",
        "numberOfBytes": "32"
      },
      "t_bool": {
        "encoding": "inplace",
        "label": "bool",
        "numberOfBytes": "1"
      },
      "t_mapping(t_address,t_bool)": {
        "encoding": "mapping",
        "key": "t_address",
        "label": "mapping(address => bool)",
        "numberOfBytes": "32",
        "value": "t_bool"
      },
      "t_mapping(t_address,t_mapping(t_address,t_bool))": {
        "encoding": "mapping",
        "key": "t_address",
        "label": "mapping(address => mapping(address => bool))",
        "numberOfBytes": "32",
        "value": "t_mapping(t_address,t_bool)"
      },
      "t_mapping(t_address,t_uint256)": {
        "encoding": "mapping",
        "key": "t_address",
        "label": "mapping(address => uint256)",
        "numberOfBytes": "32",
        "value": "t_uint256"
      },
      "t_mapping(t_uint256,t_address)": {
        "encoding": "mapping",
        "key": "t_uint256",
        "label": "mapping(uint256 => address)",
        "numberOfBytes": "32",
        "value": "t_address"
      },
      "t_mapping(t_uint256,t_string_storage)": {
        "encoding": "mapping",
        "key": "t_uint256",
        "label": "mapping(uint256 => string)",
        "numberOfBytes": "32",
        "value": "t_string_storage"
      },
      "t_string_storage": {
        "encoding": "bytes",
        "label": "string",
        "numberOfBytes": "32"
      },
      "t_uint256": {
        "encoding": "inplace",
        "label": "uint256",
        "numberOfBytes": "32"
      }
    }
  }
}