{
  "address": "0x67Cfa718a6Ac50ca6A998546dA2d0Ab332b8C9b4",
  "abi": [
    {
      "inputs": [
        {
          "internalType": "address",
          "name": "_vrfCoordinator",
          "type": "address"
        },
        {
          "internalType": "bytes32",
          "name": "_gasLane",
          "type": "bytes32"
        },
        {
          "internalType": "uint64",
          "name": "_subscriptionID",
          "type": "uint64"
        },
        {
          "internalType": "uint32",
          "name": "_gasLimits",
          "type": "uint32"
        },
        {
          "internalType": "uint256",
          "name": "_mintFee",
          "type": "uint256"
        },
        {
          "internalType": "uint256",
          "name": "_nftAmount",
          "type": "uint256"
        },
        {
          "internalType": "string[]",
          "name": "_nftURIArr",
          "type": "string[]"
        }
      ],
      "stateMutability": "nonpayable",
      "type": "constructor"
    },
    {
      "inputs": [],
      "name": "IpfsNFT__TransferFailed",
      "type": "error"
    },
    {
      "inputs": [
        {
          "internalType": "address",
          "name": "have",
          "type": "address"
        },
        {
          "internalType": "address",
          "name": "want",
          "type": "address"
        }
      ],
      "name": "OnlyCoordinatorCanFulfill",
      "type": "error"
    },
    {
      "anonymous": false,
      "inputs": [
        {
          "indexed": true,
          "internalType": "address",
          "name": "owner",
          "type": "address"
        },
        {
          "indexed": true,
          "internalType": "address",
          "name": "approved",
          "type": "address"
        },
        {
          "indexed": true,
          "internalType": "uint256",
          "name": "tokenId",
          "type": "uint256"
        }
      ],
      "name": "Approval",
      "type": "event"
    },
    {
      "anonymous": false,
      "inputs": [
        {
          "indexed": true,
          "internalType": "address",
          "name": "owner",
          "type": "address"
        },
        {
          "indexed": true,
          "internalType": "address",
          "name": "operator",
          "type": "address"
        },
        {
          "indexed": false,
          "internalType": "bool",
          "name": "approved",
          "type": "bool"
        }
      ],
      "name": "ApprovalForAll",
      "type": "event"
    },
    {
      "anonymous": false,
      "inputs": [
        {
          "indexed": true,
          "internalType": "uint256",
          "name": "requestID",
          "type": "uint256"
        }
      ],
      "name": "MintRequested",
      "type": "event"
    },
    {
      "anonymous": false,
      "inputs": [
        {
          "indexed": true,
          "internalType": "uint256",
          "name": "tokenID",
          "type": "uint256"
        }
      ],
      "name": "NFTSend",
      "type": "event"
    },
    {
      "anonymous": false,
      "inputs": [
        {
          "indexed": true,
          "internalType": "address",
          "name": "previousOwner",
          "type": "address"
        },
        {
          "indexed": true,
          "internalType": "address",
          "name": "newOwner",
          "type": "address"
        }
      ],
      "name": "OwnershipTransferred",
      "type": "event"
    },
    {
      "anonymous": false,
      "inputs": [
        {
          "indexed": true,
          "internalType": "address",
          "name": "from",
          "type": "address"
        },
        {
          "indexed": true,
          "internalType": "address",
          "name": "to",
          "type": "address"
        },
        {
          "indexed": true,
          "internalType": "uint256",
          "name": "tokenId",
          "type": "uint256"
        }
      ],
      "name": "Transfer",
      "type": "event"
    },
    {
      "inputs": [
        {
          "internalType": "address",
          "name": "to",
          "type": "address"
        },
        {
          "internalType": "uint256",
          "name": "tokenId",
          "type": "uint256"
        }
      ],
      "name": "approve",
      "outputs": [],
      "stateMutability": "nonpayable",
      "type": "function"
    },
    {
      "inputs": [
        {
          "internalType": "address",
          "name": "owner",
          "type": "address"
        }
      ],
      "name": "balanceOf",
      "outputs": [
        {
          "internalType": "uint256",
          "name": "",
          "type": "uint256"
        }
      ],
      "stateMutability": "view",
      "type": "function"
    },
    {
      "inputs": [
        {
          "internalType": "uint256",
          "name": "tokenId",
          "type": "uint256"
        }
      ],
      "name": "getApproved",
      "outputs": [
        {
          "internalType": "address",
          "name": "",
          "type": "address"
        }
      ],
      "stateMutability": "view",
      "type": "function"
    },
    {
      "inputs": [
        {
          "internalType": "address",
          "name": "owner",
          "type": "address"
        },
        {
          "internalType": "address",
          "name": "operator",
          "type": "address"
        }
      ],
      "name": "isApprovedForAll",
      "outputs": [
        {
          "internalType": "bool",
          "name": "",
          "type": "bool"
        }
      ],
      "stateMutability": "view",
      "type": "function"
    },
    {
      "inputs": [],
      "name": "mintFee",
      "outputs": [
        {
          "internalType": "uint256",
          "name": "",
          "type": "uint256"
        }
      ],
      "stateMutability": "view",
      "type": "function"
    },
    {
      "inputs": [],
      "name": "name",
      "outputs": [
        {
          "internalType": "string",
          "name": "",
          "type": "string"
        }
      ],
      "stateMutability": "view",
      "type": "function"
    },
    {
      "inputs": [],
      "name": "nftAmount",
      "outputs": [
        {
          "internalType": "uint256",
          "name": "",
          "type": "uint256"
        }
      ],
      "stateMutability": "view",
      "type": "function"
    },
    {
      "inputs": [],
      "name": "owner",
      "outputs": [
        {
          "internalType": "address",
          "name": "",
          "type": "address"
        }
      ],
      "stateMutability": "view",
      "type": "function"
    },
    {
      "inputs": [
        {
          "internalType": "uint256",
          "name": "tokenId",
          "type": "uint256"
        }
      ],
      "name": "ownerOf",
      "outputs": [
        {
          "internalType": "address",
          "name": "",
          "type": "address"
        }
      ],
      "stateMutability": "view",
      "type": "function"
    },
    {
      "inputs": [
        {
          "internalType": "uint256",
          "name": "requestId",
          "type": "uint256"
        },
        {
          "internalType": "uint256[]",
          "name": "randomWords",
          "type": "uint256[]"
        }
      ],
      "name": "rawFulfillRandomWords",
      "outputs": [],
      "stateMutability": "nonpayable",
      "type": "function"
    },
    {
      "inputs": [],
      "name": "renounceOwnership",
      "outputs": [],
      "stateMutability": "nonpayable",
      "type": "function"
    },
    {
      "inputs": [],
      "name": "requestMint",
      "outputs": [],
      "stateMutability": "payable",
      "type": "function"
    },
    {
      "inputs": [
        {
          "internalType": "address",
          "name": "from",
          "type": "address"
        },
        {
          "internalType": "address",
          "name": "to",
          "type": "address"
        },
        {
          "internalType": "uint256",
          "name": "tokenId",
          "type": "uint256"
        }
      ],
      "name": "safeTransferFrom",
      "outputs": [],
      "stateMutability": "nonpayable",
      "type": "function"
    },
    {
      "inputs": [
        {
          "internalType": "address",
          "name": "from",
          "type": "address"
        },
        {
          "internalType": "address",
          "name": "to",
          "type": "address"
        },
        {
          "internalType": "uint256",
          "name": "tokenId",
          "type": "uint256"
        },
        {
          "internalType": "bytes",
          "name": "data",
          "type": "bytes"
        }
      ],
      "name": "safeTransferFrom",
      "outputs": [],
      "stateMutability": "nonpayable",
      "type": "function"
    },
    {
      "inputs": [
        {
          "internalType": "address",
          "name": "operator",
          "type": "address"
        },
        {
          "internalType": "bool",
          "name": "approved",
          "type": "bool"
        }
      ],
      "name": "setApprovalForAll",
      "outputs": [],
      "stateMutability": "nonpayable",
      "type": "function"
    },
    {
      "inputs": [
        {
          "internalType": "bytes4",
          "name": "interfaceId",
          "type": "bytes4"
        }
      ],
      "name": "supportsInterface",
      "outputs": [
        {
          "internalType": "bool",
          "name": "",
          "type": "bool"
        }
      ],
      "stateMutability": "view",
      "type": "function"
    },
    {
      "inputs": [],
      "name": "symbol",
      "outputs": [
        {
          "internalType": "string",
          "name": "",
          "type": "string"
        }
      ],
      "stateMutability": "view",
      "type": "function"
    },
    {
      "inputs": [],
      "name": "tokenID",
      "outputs": [
        {
          "internalType": "uint256",
          "name": "",
          "type": "uint256"
        }
      ],
      "stateMutability": "view",
      "type": "function"
    },
    {
      "inputs": [
        {
          "internalType": "uint256",
          "name": "tokenId",
          "type": "uint256"
        }
      ],
      "name": "tokenURI",
      "outputs": [
        {
          "internalType": "string",
          "name": "",
          "type": "string"
        }
      ],
      "stateMutability": "view",
      "type": "function"
    },
    {
      "inputs": [
        {
          "internalType": "address",
          "name": "from",
          "type": "address"
        },
        {
          "internalType": "address",
          "name": "to",
          "type": "address"
        },
        {
          "internalType": "uint256",
          "name": "tokenId",
          "type": "uint256"
        }
      ],
      "name": "transferFrom",
      "outputs": [],
      "stateMutability": "nonpayable",
      "type": "function"
    },
    {
      "inputs": [
        {
          "internalType": "address",
          "name": "newOwner",
          "type": "address"
        }
      ],
      "name": "transferOwnership",
      "outputs": [],
      "stateMutability": "nonpayable",
      "type": "function"
    },
    {
      "inputs": [],
      "name": "withdraw",
      "outputs": [],
      "stateMutability": "payable",
      "type": "function"
    }
  ],
  "transactionHash": "0x6257cac23205a75b7e7344ec34662a9c3b38f5d418321a552179fe6e10d35e0f",
  "args": [
    "0x2Ca8E0C643bDe4C2E08ab1fA0da3401AdAD7734D",
    "0x474e34a077df58807dbe9c96d3c009b23b3c6d0cce433e59bbf5b34f823bc56c",
    9548,
    500000,
    "10000000000000000",
    3,
    [
      "ipfs://QmaVkBn2tKmjbhphU7eyztbvSQU5EXDdqRyXZtRhSGgJGo",
      "ipfs://QmYQC5aGZu2PTH8XzbJrbDnvhj3gVs7ya33H9mqUNvST3d",
      "ipfs://QmZYmH5iDbD6v3U2ixoVAjioSzvWJszDzYdbeCLquGSpVm"
    ]
  ],
  "numDeployments": 1,
  "solcInputHash": "630da8d54d6167409cd3aea6434ff315",
  "bytecode": "0x6101206040523480156200001257600080fd5b50604051620041f6380380620041f6833981810160405281019062000038919062000774565b6040518060400160405280600781526020017f497066734e4654000000000000000000000000000000000000000000000000008152506040518060400160405280600481526020017f694e465400000000000000000000000000000000000000000000000000000000815250888073ffffffffffffffffffffffffffffffffffffffff1660808173ffffffffffffffffffffffffffffffffffffffff1681525050508160009081620000eb919062000a87565b508060019081620000fd919062000a87565b5050506200012062000114620001c960201b60201c565b620001d160201b60201c565b8673ffffffffffffffffffffffffffffffffffffffff1660a08173ffffffffffffffffffffffffffffffffffffffff16815250508560c081815250508467ffffffffffffffff1660e08167ffffffffffffffff16815250508363ffffffff166101008163ffffffff168152505060006008819055508260098190555081600a8190555080600c9080519060200190620001bb92919062000297565b505050505050505062000b6e565b600033905090565b6000600760009054906101000a900473ffffffffffffffffffffffffffffffffffffffff16905081600760006101000a81548173ffffffffffffffffffffffffffffffffffffffff021916908373ffffffffffffffffffffffffffffffffffffffff1602179055508173ffffffffffffffffffffffffffffffffffffffff168173ffffffffffffffffffffffffffffffffffffffff167f8be0079c531659141344cd1fd0a4f28419497f9722a3daafe3b4186f6b6457e060405160405180910390a35050565b828054828255906000526020600020908101928215620002e4579160200282015b82811115620002e3578251829081620002d2919062000a87565b5091602001919060010190620002b8565b5b509050620002f39190620002f7565b5090565b5b808211156200031b57600081816200031191906200031f565b50600101620002f8565b5090565b5080546200032d9062000880565b6000825580601f1062000341575062000362565b601f01602090049060005260206000209081019062000361919062000365565b5b50565b5b808211156200038057600081600090555060010162000366565b5090565b6000604051905090565b600080fd5b600080fd5b600073ffffffffffffffffffffffffffffffffffffffff82169050919050565b6000620003c58262000398565b9050919050565b620003d781620003b8565b8114620003e357600080fd5b50565b600081519050620003f781620003cc565b92915050565b6000819050919050565b6200041281620003fd565b81146200041e57600080fd5b50565b600081519050620004328162000407565b92915050565b600067ffffffffffffffff82169050919050565b620004578162000438565b81146200046357600080fd5b50565b60008151905062000477816200044c565b92915050565b600063ffffffff82169050919050565b62000498816200047d565b8114620004a457600080fd5b50565b600081519050620004b8816200048d565b92915050565b6000819050919050565b620004d381620004be565b8114620004df57600080fd5b50565b600081519050620004f381620004c8565b92915050565b600080fd5b6000601f19601f8301169050919050565b7f4e487b7100000000000000000000000000000000000000000000000000000000600052604160045260246000fd5b6200054982620004fe565b810181811067ffffffffffffffff821117156200056b576200056a6200050f565b5b80604052505050565b60006200058062000384565b90506200058e82826200053e565b919050565b600067ffffffffffffffff821115620005b157620005b06200050f565b5b602082029050602081019050919050565b600080fd5b600080fd5b600067ffffffffffffffff821115620005ea57620005e96200050f565b5b620005f582620004fe565b9050602081019050919050565b60005b838110156200062257808201518184015260208101905062000605565b60008484015250505050565b6000620006456200063f84620005cc565b62000574565b905082815260208101848484011115620006645762000663620005c7565b5b6200067184828562000602565b509392505050565b600082601f830112620006915762000690620004f9565b5b8151620006a38482602086016200062e565b91505092915050565b6000620006c3620006bd8462000593565b62000574565b90508083825260208201905060208402830185811115620006e957620006e8620005c2565b5b835b818110156200073757805167ffffffffffffffff811115620007125762000711620004f9565b5b80860162000721898262000679565b85526020850194505050602081019050620006eb565b5050509392505050565b600082601f830112620007595762000758620004f9565b5b81516200076b848260208601620006ac565b91505092915050565b600080600080600080600060e0888a0312156200079657620007956200038e565b5b6000620007a68a828b01620003e6565b9750506020620007b98a828b0162000421565b9650506040620007cc8a828b0162000466565b9550506060620007df8a828b01620004a7565b9450506080620007f28a828b01620004e2565b93505060a0620008058a828b01620004e2565b92505060c088015167ffffffffffffffff81111562000829576200082862000393565b5b620008378a828b0162000741565b91505092959891949750929550565b600081519050919050565b7f4e487b7100000000000000000000000000000000000000000000000000000000600052602260045260246000fd5b600060028204905060018216806200089957607f821691505b602082108103620008af57620008ae62000851565b5b50919050565b60008190508160005260206000209050919050565b60006020601f8301049050919050565b600082821b905092915050565b600060088302620009197fffffffffffffffffffffffffffffffffffffffffffffffffffffffffffffffff82620008da565b620009258683620008da565b95508019841693508086168417925050509392505050565b6000819050919050565b600062000968620009626200095c84620004be565b6200093d565b620004be565b9050919050565b6000819050919050565b620009848362000947565b6200099c62000993826200096f565b848454620008e7565b825550505050565b600090565b620009b3620009a4565b620009c081848462000979565b505050565b5b81811015620009e857620009dc600082620009a9565b600181019050620009c6565b5050565b601f82111562000a375762000a0181620008b5565b62000a0c84620008ca565b8101602085101562000a1c578190505b62000a3462000a2b85620008ca565b830182620009c5565b50505b505050565b600082821c905092915050565b600062000a5c6000198460080262000a3c565b1980831691505092915050565b600062000a77838362000a49565b9150826002028217905092915050565b62000a928262000846565b67ffffffffffffffff81111562000aae5762000aad6200050f565b5b62000aba825462000880565b62000ac7828285620009ec565b600060209050601f83116001811462000aff576000841562000aea578287015190505b62000af6858262000a69565b86555062000b66565b601f19841662000b0f86620008b5565b60005b8281101562000b395784890151825560018201915060208501945060208101905062000b12565b8683101562000b59578489015162000b55601f89168262000a49565b8355505b6001600288020188555050505b505050505050565b60805160a05160c05160e0516101005161363c62000bba6000396000610c7b01526000610c5801526000610c3701526000610bfb0152600081816107cd0152610821015261363c6000f3fe6080604052600436106101355760003560e01c806370a08231116100ab578063a5c42ef11161006f578063a5c42ef1146103f3578063afb7bed91461041e578063b88d4fde14610428578063c87b56dd14610451578063e985e9c51461048e578063f2fde38b146104cb57610135565b806370a0823114610320578063715018a61461035d5780638da5cb5b1461037457806395d89b411461039f578063a22cb465146103ca57610135565b80631fe543e3116100fd5780631fe543e31461023357806323b872dd1461025c578063288b3453146102855780633ccfd60b146102b057806342842e0e146102ba5780636352211e146102e357610135565b806301ffc9a71461013a57806306fdde0314610177578063081812fc146101a2578063095ea7b3146101df57806313966db514610208575b600080fd5b34801561014657600080fd5b50610161600480360381019061015c91906121c7565b6104f4565b60405161016e919061220f565b60405180910390f35b34801561018357600080fd5b5061018c6105d6565b60405161019991906122ba565b60405180910390f35b3480156101ae57600080fd5b506101c960048036038101906101c49190612312565b610668565b6040516101d69190612380565b60405180910390f35b3480156101eb57600080fd5b50610206600480360381019061020191906123c7565b6106ae565b005b34801561021457600080fd5b5061021d6107c5565b60405161022a9190612416565b60405180910390f35b34801561023f57600080fd5b5061025a60048036038101906102559190612579565b6107cb565b005b34801561026857600080fd5b50610283600480360381019061027e91906125d5565b61088b565b005b34801561029157600080fd5b5061029a6108eb565b6040516102a79190612416565b60405180910390f35b6102b86108f1565b005b3480156102c657600080fd5b506102e160048036038101906102dc91906125d5565b61099f565b005b3480156102ef57600080fd5b5061030a60048036038101906103059190612312565b6109bf565b6040516103179190612380565b60405180910390f35b34801561032c57600080fd5b5061034760048036038101906103429190612628565b610a45565b6040516103549190612416565b60405180910390f35b34801561036957600080fd5b50610372610afc565b005b34801561038057600080fd5b50610389610b10565b6040516103969190612380565b60405180910390f35b3480156103ab57600080fd5b506103b4610b3a565b6040516103c191906122ba565b60405180910390f35b3480156103d657600080fd5b506103f160048036038101906103ec9190612681565b610bcc565b005b3480156103ff57600080fd5b50610408610be2565b6040516104159190612416565b60405180910390f35b610426610be8565b005b34801561043457600080fd5b5061044f600480360381019061044a9190612776565b610d83565b005b34801561045d57600080fd5b5061047860048036038101906104739190612312565b610de5565b60405161048591906122ba565b60405180910390f35b34801561049a57600080fd5b506104b560048036038101906104b091906127f9565b610ef7565b6040516104c2919061220f565b60405180910390f35b3480156104d757600080fd5b506104f260048036038101906104ed9190612628565b610f8b565b005b60007f80ac58cd000000000000000000000000000000000000000000000000000000007bffffffffffffffffffffffffffffffffffffffffffffffffffffffff1916827bffffffffffffffffffffffffffffffffffffffffffffffffffffffff191614806105bf57507f5b5e139f000000000000000000000000000000000000000000000000000000007bffffffffffffffffffffffffffffffffffffffffffffffffffffffff1916827bffffffffffffffffffffffffffffffffffffffffffffffffffffffff1916145b806105cf57506105ce8261100e565b5b9050919050565b6060600080546105e590612868565b80601f016020809104026020016040519081016040528092919081815260200182805461061190612868565b801561065e5780601f106106335761010080835404028352916020019161065e565b820191906000526020600020905b81548152906001019060200180831161064157829003601f168201915b5050505050905090565b600061067382611078565b6004600083815260200190815260200160002060009054906101000a900473ffffffffffffffffffffffffffffffffffffffff169050919050565b60006106b9826109bf565b90508073ffffffffffffffffffffffffffffffffffffffff168373ffffffffffffffffffffffffffffffffffffffff1603610729576040517f08c379a00000000000000000000000000000000000000000000000000000000081526004016107209061290b565b60405180910390fd5b8073ffffffffffffffffffffffffffffffffffffffff166107486110c3565b73ffffffffffffffffffffffffffffffffffffffff1614806107775750610776816107716110c3565b610ef7565b5b6107b6576040517f08c379a00000000000000000000000000000000000000000000000000000000081526004016107ad9061299d565b60405180910390fd5b6107c083836110cb565b505050565b60095481565b7f000000000000000000000000000000000000000000000000000000000000000073ffffffffffffffffffffffffffffffffffffffff163373ffffffffffffffffffffffffffffffffffffffff161461087d57337f00000000000000000000000000000000000000000000000000000000000000006040517f1cf993f40000000000000000000000000000000000000000000000000000000081526004016108749291906129bd565b60405180910390fd5b6108878282611184565b5050565b61089c6108966110c3565b826112ea565b6108db576040517f08c379a00000000000000000000000000000000000000000000000000000000081526004016108d290612a58565b60405180910390fd5b6108e683838361137f565b505050565b600a5481565b6108f9611678565b60003373ffffffffffffffffffffffffffffffffffffffff164760405161091f90612aa9565b60006040518083038185875af1925050503d806000811461095c576040519150601f19603f3d011682016040523d82523d6000602084013e610961565b606091505b505090508061099c576040517f65a0789500000000000000000000000000000000000000000000000000000000815260040160405180910390fd5b50565b6109ba83838360405180602001604052806000815250610d83565b505050565b6000806109cb836116f6565b9050600073ffffffffffffffffffffffffffffffffffffffff168173ffffffffffffffffffffffffffffffffffffffff1603610a3c576040517f08c379a0000000000000000000000000000000000000000000000000000000008152600401610a3390612b0a565b60405180910390fd5b80915050919050565b60008073ffffffffffffffffffffffffffffffffffffffff168273ffffffffffffffffffffffffffffffffffffffff1603610ab5576040517f08c379a0000000000000000000000000000000000000000000000000000000008152600401610aac90612b9c565b60405180910390fd5b600360008373ffffffffffffffffffffffffffffffffffffffff1673ffffffffffffffffffffffffffffffffffffffff168152602001908152602001600020549050919050565b610b04611678565b610b0e6000611733565b565b6000600760009054906101000a900473ffffffffffffffffffffffffffffffffffffffff16905090565b606060018054610b4990612868565b80601f0160208091040260200160405190810160405280929190818152602001828054610b7590612868565b8015610bc25780601f10610b9757610100808354040283529160200191610bc2565b820191906000526020600020905b815481529060010190602001808311610ba557829003601f168201915b5050505050905090565b610bde610bd76110c3565b83836117f9565b5050565b60085481565b600954341015610bf757600080fd5b60007f000000000000000000000000000000000000000000000000000000000000000073ffffffffffffffffffffffffffffffffffffffff16635d3b1d307f00000000000000000000000000000000000000000000000000000000000000007f000000000000000000000000000000000000000000000000000000000000000060037f000000000000000000000000000000000000000000000000000000000000000060016040518663ffffffff1660e01b8152600401610cbc959493929190612c34565b6020604051808303816000875af1158015610cdb573d6000803e3d6000fd5b505050506040513d601f19601f82011682018060405250810190610cff9190612c9c565b905033600b600083815260200190815260200160002060006101000a81548173ffffffffffffffffffffffffffffffffffffffff021916908373ffffffffffffffffffffffffffffffffffffffff160217905550807fed7e1cc32737aac2f5c91387879185d74677bc68b69562a9d6dcd77622e8b62d60405160405180910390a250565b610d94610d8e6110c3565b836112ea565b610dd3576040517f08c379a0000000000000000000000000000000000000000000000000000000008152600401610dca90612a58565b60405180910390fd5b610ddf84848484611965565b50505050565b6060610df082611078565b6000600660008481526020019081526020016000208054610e1090612868565b80601f0160208091040260200160405190810160405280929190818152602001828054610e3c90612868565b8015610e895780601f10610e5e57610100808354040283529160200191610e89565b820191906000526020600020905b815481529060010190602001808311610e6c57829003601f168201915b505050505090506000610e9a6119c1565b90506000815103610eaf578192505050610ef2565b600082511115610ee4578082604051602001610ecc929190612d05565b60405160208183030381529060405292505050610ef2565b610eed846119d8565b925050505b919050565b6000600560008473ffffffffffffffffffffffffffffffffffffffff1673ffffffffffffffffffffffffffffffffffffffff16815260200190815260200160002060008373ffffffffffffffffffffffffffffffffffffffff1673ffffffffffffffffffffffffffffffffffffffff16815260200190815260200160002060009054906101000a900460ff16905092915050565b610f93611678565b600073ffffffffffffffffffffffffffffffffffffffff168173ffffffffffffffffffffffffffffffffffffffff1603611002576040517f08c379a0000000000000000000000000000000000000000000000000000000008152600401610ff990612d9b565b60405180910390fd5b61100b81611733565b50565b60007f01ffc9a7000000000000000000000000000000000000000000000000000000007bffffffffffffffffffffffffffffffffffffffffffffffffffffffff1916827bffffffffffffffffffffffffffffffffffffffffffffffffffffffff1916149050919050565b61108181611a40565b6110c0576040517f08c379a00000000000000000000000000000000000000000000000000000000081526004016110b790612b0a565b60405180910390fd5b50565b600033905090565b816004600083815260200190815260200160002060006101000a81548173ffffffffffffffffffffffffffffffffffffffff021916908373ffffffffffffffffffffffffffffffffffffffff160217905550808273ffffffffffffffffffffffffffffffffffffffff1661113e836109bf565b73ffffffffffffffffffffffffffffffffffffffff167f8c5be1e5ebec7d5bd14f71427d1e84f3dd0314c0f7b2291e5b200ac8c7c3b92560405160405180910390a45050565b61125e600854600c600a54846000815181106111a3576111a2612dbb565b5b60200260200101516111b59190612e19565b815481106111c6576111c5612dbb565b5b9060005260206000200180546111db90612868565b80601f016020809104026020016040519081016040528092919081815260200182805461120790612868565b80156112545780601f1061122957610100808354040283529160200191611254565b820191906000526020600020905b81548152906001019060200180831161123757829003601f168201915b5050505050611a81565b61129d600b600084815260200190815260200160002060009054906101000a900473ffffffffffffffffffffffffffffffffffffffff16600854611aee565b6008547f78c762231aabcfdc3db207675fd285a1a44ed66a4ec21da6fdd9b63f18c79ab060405160405180910390a26001600860008282546112df9190612e79565b925050819055505050565b6000806112f6836109bf565b90508073ffffffffffffffffffffffffffffffffffffffff168473ffffffffffffffffffffffffffffffffffffffff16148061133857506113378185610ef7565b5b8061137657508373ffffffffffffffffffffffffffffffffffffffff1661135e84610668565b73ffffffffffffffffffffffffffffffffffffffff16145b91505092915050565b8273ffffffffffffffffffffffffffffffffffffffff1661139f826109bf565b73ffffffffffffffffffffffffffffffffffffffff16146113f5576040517f08c379a00000000000000000000000000000000000000000000000000000000081526004016113ec90612f1f565b60405180910390fd5b600073ffffffffffffffffffffffffffffffffffffffff168273ffffffffffffffffffffffffffffffffffffffff1603611464576040517f08c379a000000000000000000000000000000000000000000000000000000000815260040161145b90612fb1565b60405180910390fd5b6114718383836001611b0c565b8273ffffffffffffffffffffffffffffffffffffffff16611491826109bf565b73ffffffffffffffffffffffffffffffffffffffff16146114e7576040517f08c379a00000000000000000000000000000000000000000000000000000000081526004016114de90612f1f565b60405180910390fd5b6004600082815260200190815260200160002060006101000a81549073ffffffffffffffffffffffffffffffffffffffff02191690556001600360008573ffffffffffffffffffffffffffffffffffffffff1673ffffffffffffffffffffffffffffffffffffffff168152602001908152602001600020600082825403925050819055506001600360008473ffffffffffffffffffffffffffffffffffffffff1673ffffffffffffffffffffffffffffffffffffffff16815260200190815260200160002060008282540192505081905550816002600083815260200190815260200160002060006101000a81548173ffffffffffffffffffffffffffffffffffffffff021916908373ffffffffffffffffffffffffffffffffffffffff160217905550808273ffffffffffffffffffffffffffffffffffffffff168473ffffffffffffffffffffffffffffffffffffffff167fddf252ad1be2c89b69c2b068fc378daa952ba7f163c4a11628f55a4df523b3ef60405160405180910390a46116738383836001611b12565b505050565b6116806110c3565b73ffffffffffffffffffffffffffffffffffffffff1661169e610b10565b73ffffffffffffffffffffffffffffffffffffffff16146116f4576040517f08c379a00000000000000000000000000000000000000000000000000000000081526004016116eb9061301d565b60405180910390fd5b565b60006002600083815260200190815260200160002060009054906101000a900473ffffffffffffffffffffffffffffffffffffffff169050919050565b6000600760009054906101000a900473ffffffffffffffffffffffffffffffffffffffff16905081600760006101000a81548173ffffffffffffffffffffffffffffffffffffffff021916908373ffffffffffffffffffffffffffffffffffffffff1602179055508173ffffffffffffffffffffffffffffffffffffffff168173ffffffffffffffffffffffffffffffffffffffff167f8be0079c531659141344cd1fd0a4f28419497f9722a3daafe3b4186f6b6457e060405160405180910390a35050565b8173ffffffffffffffffffffffffffffffffffffffff168373ffffffffffffffffffffffffffffffffffffffff1603611867576040517f08c379a000000000000000000000000000000000000000000000000000000000815260040161185e90613089565b60405180910390fd5b80600560008573ffffffffffffffffffffffffffffffffffffffff1673ffffffffffffffffffffffffffffffffffffffff16815260200190815260200160002060008473ffffffffffffffffffffffffffffffffffffffff1673ffffffffffffffffffffffffffffffffffffffff16815260200190815260200160002060006101000a81548160ff0219169083151502179055508173ffffffffffffffffffffffffffffffffffffffff168373ffffffffffffffffffffffffffffffffffffffff167f17307eab39ab6107e8899845ad3d59bd9653f200f220920489ca2b5937696c3183604051611958919061220f565b60405180910390a3505050565b61197084848461137f565b61197c84848484611b18565b6119bb576040517f08c379a00000000000000000000000000000000000000000000000000000000081526004016119b29061311b565b60405180910390fd5b50505050565b606060405180602001604052806000815250905090565b60606119e382611078565b60006119ed6119c1565b90506000815111611a0d5760405180602001604052806000815250611a38565b80611a1784611c9f565b604051602001611a28929190612d05565b6040516020818303038152906040525b915050919050565b60008073ffffffffffffffffffffffffffffffffffffffff16611a62836116f6565b73ffffffffffffffffffffffffffffffffffffffff1614159050919050565b611a8a82611a40565b611ac9576040517f08c379a0000000000000000000000000000000000000000000000000000000008152600401611ac0906131ad565b60405180910390fd5b80600660008481526020019081526020016000209081611ae99190613379565b505050565b611b08828260405180602001604052806000815250611d6d565b5050565b50505050565b50505050565b6000611b398473ffffffffffffffffffffffffffffffffffffffff16611dc8565b15611c92578373ffffffffffffffffffffffffffffffffffffffff1663150b7a02611b626110c3565b8786866040518563ffffffff1660e01b8152600401611b8494939291906134a0565b6020604051808303816000875af1925050508015611bc057506040513d601f19601f82011682018060405250810190611bbd9190613501565b60015b611c42573d8060008114611bf0576040519150601f19603f3d011682016040523d82523d6000602084013e611bf5565b606091505b506000815103611c3a576040517f08c379a0000000000000000000000000000000000000000000000000000000008152600401611c319061311b565b60405180910390fd5b805181602001fd5b63150b7a0260e01b7bffffffffffffffffffffffffffffffffffffffffffffffffffffffff1916817bffffffffffffffffffffffffffffffffffffffffffffffffffffffff191614915050611c97565b600190505b949350505050565b606060006001611cae84611deb565b01905060008167ffffffffffffffff811115611ccd57611ccc612436565b5b6040519080825280601f01601f191660200182016040528015611cff5781602001600182028036833780820191505090505b509050600082602001820190505b600115611d62578080600190039150507f3031323334353637383961626364656600000000000000000000000000000000600a86061a8153600a8581611d5657611d55612dea565b5b04945060008503611d0d575b819350505050919050565b611d778383611f3e565b611d846000848484611b18565b611dc3576040517f08c379a0000000000000000000000000000000000000000000000000000000008152600401611dba9061311b565b60405180910390fd5b505050565b6000808273ffffffffffffffffffffffffffffffffffffffff163b119050919050565b600080600090507a184f03e93ff9f4daa797ed6e38ed64bf6a1f0100000000000000008310611e49577a184f03e93ff9f4daa797ed6e38ed64bf6a1f0100000000000000008381611e3f57611e3e612dea565b5b0492506040810190505b6d04ee2d6d415b85acef81000000008310611e86576d04ee2d6d415b85acef81000000008381611e7c57611e7b612dea565b5b0492506020810190505b662386f26fc100008310611eb557662386f26fc100008381611eab57611eaa612dea565b5b0492506010810190505b6305f5e1008310611ede576305f5e1008381611ed457611ed3612dea565b5b0492506008810190505b6127108310611f03576127108381611ef957611ef8612dea565b5b0492506004810190505b60648310611f265760648381611f1c57611f1b612dea565b5b0492506002810190505b600a8310611f35576001810190505b80915050919050565b600073ffffffffffffffffffffffffffffffffffffffff168273ffffffffffffffffffffffffffffffffffffffff1603611fad576040517f08c379a0000000000000000000000000000000000000000000000000000000008152600401611fa49061357a565b60405180910390fd5b611fb681611a40565b15611ff6576040517f08c379a0000000000000000000000000000000000000000000000000000000008152600401611fed906135e6565b60405180910390fd5b612004600083836001611b0c565b61200d81611a40565b1561204d576040517f08c379a0000000000000000000000000000000000000000000000000000000008152600401612044906135e6565b60405180910390fd5b6001600360008473ffffffffffffffffffffffffffffffffffffffff1673ffffffffffffffffffffffffffffffffffffffff16815260200190815260200160002060008282540192505081905550816002600083815260200190815260200160002060006101000a81548173ffffffffffffffffffffffffffffffffffffffff021916908373ffffffffffffffffffffffffffffffffffffffff160217905550808273ffffffffffffffffffffffffffffffffffffffff16600073ffffffffffffffffffffffffffffffffffffffff167fddf252ad1be2c89b69c2b068fc378daa952ba7f163c4a11628f55a4df523b3ef60405160405180910390a4612157600083836001611b12565b5050565b6000604051905090565b600080fd5b600080fd5b60007fffffffff0000000000000000000000000000000000000000000000000000000082169050919050565b6121a48161216f565b81146121af57600080fd5b50565b6000813590506121c18161219b565b92915050565b6000602082840312156121dd576121dc612165565b5b60006121eb848285016121b2565b91505092915050565b60008115159050919050565b612209816121f4565b82525050565b60006020820190506122246000830184612200565b92915050565b600081519050919050565b600082825260208201905092915050565b60005b83811015612264578082015181840152602081019050612249565b60008484015250505050565b6000601f19601f8301169050919050565b600061228c8261222a565b6122968185612235565b93506122a6818560208601612246565b6122af81612270565b840191505092915050565b600060208201905081810360008301526122d48184612281565b905092915050565b6000819050919050565b6122ef816122dc565b81146122fa57600080fd5b50565b60008135905061230c816122e6565b92915050565b60006020828403121561232857612327612165565b5b6000612336848285016122fd565b91505092915050565b600073ffffffffffffffffffffffffffffffffffffffff82169050919050565b600061236a8261233f565b9050919050565b61237a8161235f565b82525050565b60006020820190506123956000830184612371565b92915050565b6123a48161235f565b81146123af57600080fd5b50565b6000813590506123c18161239b565b92915050565b600080604083850312156123de576123dd612165565b5b60006123ec858286016123b2565b92505060206123fd858286016122fd565b9150509250929050565b612410816122dc565b82525050565b600060208201905061242b6000830184612407565b92915050565b600080fd5b7f4e487b7100000000000000000000000000000000000000000000000000000000600052604160045260246000fd5b61246e82612270565b810181811067ffffffffffffffff8211171561248d5761248c612436565b5b80604052505050565b60006124a061215b565b90506124ac8282612465565b919050565b600067ffffffffffffffff8211156124cc576124cb612436565b5b602082029050602081019050919050565b600080fd5b60006124f56124f0846124b1565b612496565b90508083825260208201905060208402830185811115612518576125176124dd565b5b835b81811015612541578061252d88826122fd565b84526020840193505060208101905061251a565b5050509392505050565b600082601f8301126125605761255f612431565b5b81356125708482602086016124e2565b91505092915050565b600080604083850312156125905761258f612165565b5b600061259e858286016122fd565b925050602083013567ffffffffffffffff8111156125bf576125be61216a565b5b6125cb8582860161254b565b9150509250929050565b6000806000606084860312156125ee576125ed612165565b5b60006125fc868287016123b2565b935050602061260d868287016123b2565b925050604061261e868287016122fd565b9150509250925092565b60006020828403121561263e5761263d612165565b5b600061264c848285016123b2565b91505092915050565b61265e816121f4565b811461266957600080fd5b50565b60008135905061267b81612655565b92915050565b6000806040838503121561269857612697612165565b5b60006126a6858286016123b2565b92505060206126b78582860161266c565b9150509250929050565b600080fd5b600067ffffffffffffffff8211156126e1576126e0612436565b5b6126ea82612270565b9050602081019050919050565b82818337600083830152505050565b6000612719612714846126c6565b612496565b905082815260208101848484011115612735576127346126c1565b5b6127408482856126f7565b509392505050565b600082601f83011261275d5761275c612431565b5b813561276d848260208601612706565b91505092915050565b600080600080608085870312156127905761278f612165565b5b600061279e878288016123b2565b94505060206127af878288016123b2565b93505060406127c0878288016122fd565b925050606085013567ffffffffffffffff8111156127e1576127e061216a565b5b6127ed87828801612748565b91505092959194509250565b600080604083850312156128105761280f612165565b5b600061281e858286016123b2565b925050602061282f858286016123b2565b9150509250929050565b7f4e487b7100000000000000000000000000000000000000000000000000000000600052602260045260246000fd5b6000600282049050600182168061288057607f821691505b60208210810361289357612892612839565b5b50919050565b7f4552433732313a20617070726f76616c20746f2063757272656e74206f776e6560008201527f7200000000000000000000000000000000000000000000000000000000000000602082015250565b60006128f5602183612235565b915061290082612899565b604082019050919050565b60006020820190508181036000830152612924816128e8565b9050919050565b7f4552433732313a20617070726f76652063616c6c6572206973206e6f7420746f60008201527f6b656e206f776e6572206f7220617070726f76656420666f7220616c6c000000602082015250565b6000612987603d83612235565b91506129928261292b565b604082019050919050565b600060208201905081810360008301526129b68161297a565b9050919050565b60006040820190506129d26000830185612371565b6129df6020830184612371565b9392505050565b7f4552433732313a2063616c6c6572206973206e6f7420746f6b656e206f776e6560008201527f72206f7220617070726f76656400000000000000000000000000000000000000602082015250565b6000612a42602d83612235565b9150612a4d826129e6565b604082019050919050565b60006020820190508181036000830152612a7181612a35565b9050919050565b600081905092915050565b50565b6000612a93600083612a78565b9150612a9e82612a83565b600082019050919050565b6000612ab482612a86565b9150819050919050565b7f4552433732313a20696e76616c696420746f6b656e2049440000000000000000600082015250565b6000612af4601883612235565b9150612aff82612abe565b602082019050919050565b60006020820190508181036000830152612b2381612ae7565b9050919050565b7f4552433732313a2061646472657373207a65726f206973206e6f74206120766160008201527f6c6964206f776e65720000000000000000000000000000000000000000000000602082015250565b6000612b86602983612235565b9150612b9182612b2a565b604082019050919050565b60006020820190508181036000830152612bb581612b79565b9050919050565b6000819050919050565b612bcf81612bbc565b82525050565b600067ffffffffffffffff82169050919050565b612bf281612bd5565b82525050565b600061ffff82169050919050565b612c0f81612bf8565b82525050565b600063ffffffff82169050919050565b612c2e81612c15565b82525050565b600060a082019050612c496000830188612bc6565b612c566020830187612be9565b612c636040830186612c06565b612c706060830185612c25565b612c7d6080830184612c25565b9695505050505050565b600081519050612c96816122e6565b92915050565b600060208284031215612cb257612cb1612165565b5b6000612cc084828501612c87565b91505092915050565b600081905092915050565b6000612cdf8261222a565b612ce98185612cc9565b9350612cf9818560208601612246565b80840191505092915050565b6000612d118285612cd4565b9150612d1d8284612cd4565b91508190509392505050565b7f4f776e61626c653a206e6577206f776e657220697320746865207a65726f206160008201527f6464726573730000000000000000000000000000000000000000000000000000602082015250565b6000612d85602683612235565b9150612d9082612d29565b604082019050919050565b60006020820190508181036000830152612db481612d78565b9050919050565b7f4e487b7100000000000000000000000000000000000000000000000000000000600052603260045260246000fd5b7f4e487b7100000000000000000000000000000000000000000000000000000000600052601260045260246000fd5b6000612e24826122dc565b9150612e2f836122dc565b925082612e3f57612e3e612dea565b5b828206905092915050565b7f4e487b7100000000000000000000000000000000000000000000000000000000600052601160045260246000fd5b6000612e84826122dc565b9150612e8f836122dc565b9250828201905080821115612ea757612ea6612e4a565b5b92915050565b7f4552433732313a207472616e736665722066726f6d20696e636f72726563742060008201527f6f776e6572000000000000000000000000000000000000000000000000000000602082015250565b6000612f09602583612235565b9150612f1482612ead565b604082019050919050565b60006020820190508181036000830152612f3881612efc565b9050919050565b7f4552433732313a207472616e7366657220746f20746865207a65726f2061646460008201527f7265737300000000000000000000000000000000000000000000000000000000602082015250565b6000612f9b602483612235565b9150612fa682612f3f565b604082019050919050565b60006020820190508181036000830152612fca81612f8e565b9050919050565b7f4f776e61626c653a2063616c6c6572206973206e6f7420746865206f776e6572600082015250565b6000613007602083612235565b915061301282612fd1565b602082019050919050565b6000602082019050818103600083015261303681612ffa565b9050919050565b7f4552433732313a20617070726f766520746f2063616c6c657200000000000000600082015250565b6000613073601983612235565b915061307e8261303d565b602082019050919050565b600060208201905081810360008301526130a281613066565b9050919050565b7f4552433732313a207472616e7366657220746f206e6f6e20455243373231526560008201527f63656976657220696d706c656d656e7465720000000000000000000000000000602082015250565b6000613105603283612235565b9150613110826130a9565b604082019050919050565b60006020820190508181036000830152613134816130f8565b9050919050565b7f45524337323155524953746f726167653a2055524920736574206f66206e6f6e60008201527f6578697374656e7420746f6b656e000000000000000000000000000000000000602082015250565b6000613197602e83612235565b91506131a28261313b565b604082019050919050565b600060208201905081810360008301526131c68161318a565b9050919050565b60008190508160005260206000209050919050565b60006020601f8301049050919050565b600082821b905092915050565b60006008830261322f7fffffffffffffffffffffffffffffffffffffffffffffffffffffffffffffffff826131f2565b61323986836131f2565b95508019841693508086168417925050509392505050565b6000819050919050565b600061327661327161326c846122dc565b613251565b6122dc565b9050919050565b6000819050919050565b6132908361325b565b6132a461329c8261327d565b8484546131ff565b825550505050565b600090565b6132b96132ac565b6132c4818484613287565b505050565b5b818110156132e8576132dd6000826132b1565b6001810190506132ca565b5050565b601f82111561332d576132fe816131cd565b613307846131e2565b81016020851015613316578190505b61332a613322856131e2565b8301826132c9565b50505b505050565b600082821c905092915050565b600061335060001984600802613332565b1980831691505092915050565b6000613369838361333f565b9150826002028217905092915050565b6133828261222a565b67ffffffffffffffff81111561339b5761339a612436565b5b6133a58254612868565b6133b08282856132ec565b600060209050601f8311600181146133e357600084156133d1578287015190505b6133db858261335d565b865550613443565b601f1984166133f1866131cd565b60005b82811015613419578489015182556001820191506020850194506020810190506133f4565b868310156134365784890151613432601f89168261333f565b8355505b6001600288020188555050505b505050505050565b600081519050919050565b600082825260208201905092915050565b60006134728261344b565b61347c8185613456565b935061348c818560208601612246565b61349581612270565b840191505092915050565b60006080820190506134b56000830187612371565b6134c26020830186612371565b6134cf6040830185612407565b81810360608301526134e18184613467565b905095945050505050565b6000815190506134fb8161219b565b92915050565b60006020828403121561351757613516612165565b5b6000613525848285016134ec565b91505092915050565b7f4552433732313a206d696e7420746f20746865207a65726f2061646472657373600082015250565b6000613564602083612235565b915061356f8261352e565b602082019050919050565b6000602082019050818103600083015261359381613557565b9050919050565b7f4552433732313a20746f6b656e20616c7265616479206d696e74656400000000600082015250565b60006135d0601c83612235565b91506135db8261359a565b602082019050919050565b600060208201905081810360008301526135ff816135c3565b905091905056fea2646970667358221220b2765230b07d7ecc1fa2ddfd6846f60081323bbdef1d0c0dfc3270140d28e98664736f6c63430008120033",
  "devdoc": {
    "events": {
      "Approval(address,address,uint256)": {
        "details": "Emitted when `owner` enables `approved` to manage the `tokenId` token."
      },
      "ApprovalForAll(address,address,bool)": {
        "details": "Emitted when `owner` enables or disables (`approved`) `operator` to manage all of its assets."
      },
      "Transfer(address,address,uint256)": {
        "details": "Emitted when `tokenId` token is transferred from `from` to `to`."
      }
    },
    "kind": "dev",
    "methods": {
      "approve(address,uint256)": {
        "details": "See {IERC721-approve}."
      },
      "balanceOf(address)": {
        "details": "See {IERC721-balanceOf}."
      },
      "getApproved(uint256)": {
        "details": "See {IERC721-getApproved}."
      },
      "isApprovedForAll(address,address)": {
        "details": "See {IERC721-isApprovedForAll}."
      },
      "name()": {
        "details": "See {IERC721Metadata-name}."
      },
      "owner()": {
        "details": "Returns the address of the current owner."
      },
      "ownerOf(uint256)": {
        "details": "See {IERC721-ownerOf}."
      },
      "renounceOwnership()": {
        "details": "Leaves the contract without owner. It will not be possible to call `onlyOwner` functions anymore. Can only be called by the current owner. NOTE: Renouncing ownership will leave the contract without an owner, thereby removing any functionality that is only available to the owner."
      },
      "safeTransferFrom(address,address,uint256)": {
        "details": "See {IERC721-safeTransferFrom}."
      },
      "safeTransferFrom(address,address,uint256,bytes)": {
        "details": "See {IERC721-safeTransferFrom}."
      },
      "setApprovalForAll(address,bool)": {
        "details": "See {IERC721-setApprovalForAll}."
      },
      "supportsInterface(bytes4)": {
        "details": "See {IERC165-supportsInterface}."
      },
      "symbol()": {
        "details": "See {IERC721Metadata-symbol}."
      },
      "tokenURI(uint256)": {
        "details": "See {IERC721Metadata-tokenURI}."
      },
      "transferFrom(address,address,uint256)": {
        "details": "See {IERC721-transferFrom}."
      },
      "transferOwnership(address)": {
        "details": "Transfers ownership of the contract to a new account (`newOwner`). Can only be called by the current owner."
      }
    },
    "version": 1
  },
  "userdoc": {
    "kind": "user",
    "methods": {},
    "version": 1
  },
  "storageLayout": {
    "storage": [
      {
        "astId": 959,
        "contract": "contracts/IpfsNFT.sol:IpfsNFT",
        "label": "_name",
        "offset": 0,
        "slot": "0",
        "type": "t_string_storage"
      },
      {
        "astId": 961,
        "contract": "contracts/IpfsNFT.sol:IpfsNFT",
        "label": "_symbol",
        "offset": 0,
        "slot": "1",
        "type": "t_string_storage"
      },
      {
        "astId": 965,
        "contract": "contracts/IpfsNFT.sol:IpfsNFT",
        "label": "_owners",
        "offset": 0,
        "slot": "2",
        "type": "t_mapping(t_uint256,t_address)"
      },
      {
        "astId": 969,
        "contract": "contracts/IpfsNFT.sol:IpfsNFT",
        "label": "_balances",
        "offset": 0,
        "slot": "3",
        "type": "t_mapping(t_address,t_uint256)"
      },
      {
        "astId": 973,
        "contract": "contracts/IpfsNFT.sol:IpfsNFT",
        "label": "_tokenApprovals",
        "offset": 0,
        "slot": "4",
        "type": "t_mapping(t_uint256,t_address)"
      },
      {
        "astId": 979,
        "contract": "contracts/IpfsNFT.sol:IpfsNFT",
        "label": "_operatorApprovals",
        "offset": 0,
        "slot": "5",
        "type": "t_mapping(t_address,t_mapping(t_address,t_bool))"
      },
      {
        "astId": 2007,
        "contract": "contracts/IpfsNFT.sol:IpfsNFT",
        "label": "_tokenURIs",
        "offset": 0,
        "slot": "6",
        "type": "t_mapping(t_uint256,t_string_storage)"
      },
      {
        "astId": 828,
        "contract": "contracts/IpfsNFT.sol:IpfsNFT",
        "label": "_owner",
        "offset": 0,
        "slot": "7",
        "type": "t_address"
      },
      {
        "astId": 3662,
        "contract": "contracts/IpfsNFT.sol:IpfsNFT",
        "label": "tokenID",
        "offset": 0,
        "slot": "8",
        "type": "t_uint256"
      },
      {
        "astId": 3664,
        "contract": "contracts/IpfsNFT.sol:IpfsNFT",
        "label": "mintFee",
        "offset": 0,
        "slot": "9",
        "type": "t_uint256"
      },
      {
        "astId": 3666,
        "contract": "contracts/IpfsNFT.sol:IpfsNFT",
        "label": "nftAmount",
        "offset": 0,
        "slot": "10",
        "type": "t_uint256"
      },
      {
        "astId": 3670,
        "contract": "contracts/IpfsNFT.sol:IpfsNFT",
        "label": "requestID2Address",
        "offset": 0,
        "slot": "11",
        "type": "t_mapping(t_uint256,t_address)"
      },
      {
        "astId": 3673,
        "contract": "contracts/IpfsNFT.sol:IpfsNFT",
        "label": "nftURIArr",
        "offset": 0,
        "slot": "12",
        "type": "t_array(t_string_storage)dyn_storage"
      }
    ],
    "types": {
      "t_address": {
        "encoding": "inplace",
        "label": "address",
        "numberOfBytes": "20"
      },
      "t_array(t_string_storage)dyn_storage": {
        "base": "t_string_storage",
        "encoding": "dynamic_array",
        "label": "string[]",
        "numberOfBytes": "32"
      },
      "t_bool": {
        "encoding": "inplace",
        "label": "bool",
        "numberOfBytes": "1"
      },
      "t_mapping(t_address,t_bool)": {
        "encoding": "mapping",
        "key": "t_address",
        "label": "mapping(address => bool)",
        "numberOfBytes": "32",
        "value": "t_bool"
      },
      "t_mapping(t_address,t_mapping(t_address,t_bool))": {
        "encoding": "mapping",
        "key": "t_address",
        "label": "mapping(address => mapping(address => bool))",
        "numberOfBytes": "32",
        "value": "t_mapping(t_address,t_bool)"
      },
      "t_mapping(t_address,t_uint256)": {
        "encoding": "mapping",
        "key": "t_address",
        "label": "mapping(address => uint256)",
        "numberOfBytes": "32",
        "value": "t_uint256"
      },
      "t_mapping(t_uint256,t_address)": {
        "encoding": "mapping",
        "key": "t_uint256",
        "label": "mapping(uint256 => address)",
        "numberOfBytes": "32",
        "value": "t_address"
      },
      "t_mapping(t_uint256,t_string_storage)": {
        "encoding": "mapping",
        "key": "t_uint256",
        "label": "mapping(uint256 => string)",
        "numberOfBytes": "32",
        "value": "t_string_storage"
      },
      "t_string_storage": {
        "encoding": "bytes",
        "label": "string",
        "numberOfBytes": "32"
      },
      "t_uint256": {
        "encoding": "inplace",
        "label": "uint256",
        "numberOfBytes": "32"
      }
    }
  }
}